{
  "address": "0x9fE46736679d2D9a65F0992F2272dE9f3c7fa6e0",
  "abi": [
    {
      "inputs": [
        {
          "internalType": "address",
          "name": "vrfCoordinator",
          "type": "address"
        },
        {
          "internalType": "address",
          "name": "link",
          "type": "address"
        },
        {
          "internalType": "bytes32",
          "name": "_keyhash",
          "type": "bytes32"
        },
        {
          "internalType": "uint256",
          "name": "_fee",
          "type": "uint256"
        }
      ],
      "stateMutability": "nonpayable",
      "type": "constructor"
    },
    {
      "anonymous": false,
      "inputs": [
        {
          "indexed": false,
          "internalType": "address",
          "name": "winner",
          "type": "address"
        },
        {
          "indexed": false,
          "internalType": "uint256",
          "name": "amount",
          "type": "uint256"
        },
        {
          "indexed": false,
          "internalType": "uint256",
          "name": "lotteryNumber",
          "type": "uint256"
        }
      ],
      "name": "LotteryComplete",
      "type": "event"
    },
    {
      "anonymous": false,
      "inputs": [
        {
          "indexed": false,
          "internalType": "bytes32",
          "name": "requestId",
          "type": "bytes32"
        },
        {
          "indexed": false,
          "internalType": "uint256",
          "name": "lotteryNumber",
          "type": "uint256"
        }
      ],
      "name": "RandomnessRequested",
      "type": "event"
    },
    {
      "anonymous": false,
      "inputs": [
        {
          "indexed": false,
          "internalType": "address",
          "name": "player",
          "type": "address"
        },
        {
          "indexed": false,
          "internalType": "uint256",
          "name": "numberOfEntries",
          "type": "uint256"
        }
      ],
      "name": "playerJoined",
      "type": "event"
    },
    {
      "inputs": [],
      "name": "entries",
      "outputs": [
        {
          "internalType": "uint256",
          "name": "",
          "type": "uint256"
        }
      ],
      "stateMutability": "view",
      "type": "function"
    },
    {
      "inputs": [],
      "name": "getLotteryHistory",
      "outputs": [
        {
          "components": [
            {
              "internalType": "uint256",
              "name": "lotteryNumber",
              "type": "uint256"
            },
            {
              "internalType": "uint256",
              "name": "numberOfPlayers",
              "type": "uint256"
            },
            {
              "internalType": "uint256",
              "name": "totalValueWon",
              "type": "uint256"
            },
            {
              "internalType": "address",
              "name": "winner",
              "type": "address"
            }
          ],
          "internalType": "struct FlashLottery.Lottery[]",
          "name": "",
          "type": "tuple[]"
        }
      ],
      "stateMutability": "view",
      "type": "function"
    },
    {
      "inputs": [],
      "name": "getPlayerPool",
      "outputs": [
        {
          "internalType": "address[]",
          "name": "",
          "type": "address[]"
        }
      ],
      "stateMutability": "view",
      "type": "function"
    },
    {
      "inputs": [
        {
          "internalType": "uint256",
          "name": "numberOfEntries",
          "type": "uint256"
        }
      ],
      "name": "joinPool",
      "outputs": [],
      "stateMutability": "payable",
      "type": "function"
    },
    {
      "inputs": [
        {
          "internalType": "uint256",
          "name": "",
          "type": "uint256"
        }
      ],
      "name": "lotteryHistory",
      "outputs": [
        {
          "internalType": "uint256",
          "name": "lotteryNumber",
          "type": "uint256"
        },
        {
          "internalType": "uint256",
          "name": "numberOfPlayers",
          "type": "uint256"
        },
        {
          "internalType": "uint256",
          "name": "totalValueWon",
          "type": "uint256"
        },
        {
          "internalType": "address",
          "name": "winner",
          "type": "address"
        }
      ],
      "stateMutability": "view",
      "type": "function"
    },
    {
      "inputs": [],
      "name": "notRandomGenerator",
      "outputs": [
        {
          "internalType": "uint256",
          "name": "",
          "type": "uint256"
        }
      ],
      "stateMutability": "view",
      "type": "function"
    },
    {
      "inputs": [
        {
          "internalType": "uint256",
          "name": "",
          "type": "uint256"
        }
      ],
      "name": "playerPool",
      "outputs": [
        {
          "internalType": "address",
          "name": "",
          "type": "address"
        }
      ],
      "stateMutability": "view",
      "type": "function"
    },
    {
      "inputs": [],
      "name": "prizePool",
      "outputs": [
        {
          "internalType": "uint256",
          "name": "",
          "type": "uint256"
        }
      ],
      "stateMutability": "view",
      "type": "function"
    },
    {
      "inputs": [],
      "name": "processLottery",
      "outputs": [],
      "stateMutability": "nonpayable",
      "type": "function"
    },
    {
      "inputs": [],
      "name": "randomNumber",
      "outputs": [
        {
          "internalType": "uint256",
          "name": "",
          "type": "uint256"
        }
      ],
      "stateMutability": "view",
      "type": "function"
    },
    {
      "inputs": [
        {
          "internalType": "bytes32",
          "name": "requestId",
          "type": "bytes32"
        },
        {
          "internalType": "uint256",
          "name": "randomness",
          "type": "uint256"
        }
      ],
      "name": "rawFulfillRandomness",
      "outputs": [],
      "stateMutability": "nonpayable",
      "type": "function"
    }
  ],
  "transactionHash": "0xdeb6cc8daa467173dadfeed86b9f1d1658f84d4380c901ceca99dcf9cf3bcfa0",
  "args": [
    "0xe7f1725E7734CE288F8367e1Bb143E90bb3F0512",
    "0x5FbDB2315678afecb367f032d93F642f64180aa3",
    "0x6c3699283bda56ad74f6b855546325b68d482e983852a7a82979cc4807b641f4",
    "100000000000000000"
  ],
  "numDeployments": 1,
  "solcInputHash": "c1790089f50ac80909ad1b45aaeb62fc",
  "bytecode": "0x60c06040523480156200001157600080fd5b5060405162001c4b38038062001c4b8339818101604052810190620000379190620001dc565b83838173ffffffffffffffffffffffffffffffffffffffff1660a08173ffffffffffffffffffffffffffffffffffffffff16815250508073ffffffffffffffffffffffffffffffffffffffff1660808173ffffffffffffffffffffffffffffffffffffffff16815250505050816007819055508060088190555033600460006101000a81548173ffffffffffffffffffffffffffffffffffffffff021916908373ffffffffffffffffffffffffffffffffffffffff160217905550505050506200024e565b600080fd5b600073ffffffffffffffffffffffffffffffffffffffff82169050919050565b60006200012e8262000101565b9050919050565b620001408162000121565b81146200014c57600080fd5b50565b600081519050620001608162000135565b92915050565b6000819050919050565b6200017b8162000166565b81146200018757600080fd5b50565b6000815190506200019b8162000170565b92915050565b6000819050919050565b620001b681620001a1565b8114620001c257600080fd5b50565b600081519050620001d681620001ab565b92915050565b60008060008060808587031215620001f957620001f8620000fc565b5b600062000209878288016200014f565b94505060206200021c878288016200014f565b93505060406200022f878288016200018a565b92505060606200024287828801620001c5565b91505092959194509250565b60805160a0516119c962000282600039600081816106da0152610b0e01526000818161089e0152610ad201526119c96000f3fe60806040526004361061009c5760003560e01c8063719ce73e11610064578063719ce73e1461017e5780637f63fd3b146101a957806394985ddd146101d4578063ccbac9f5146101fd578063e0ad550214610228578063fbd48e15146102655761009c565b80630fc99376146100a15780633149c427146100cc57806334e7a19f146100f757806354b46aeb146101135780636d6fe2301461013e575b600080fd5b3480156100ad57600080fd5b506100b661027c565b6040516100c39190610d6b565b60405180910390f35b3480156100d857600080fd5b506100e1610282565b6040516100ee9190610eda565b60405180910390f35b610111600480360381019061010c9190610f2d565b610355565b005b34801561011f57600080fd5b506101286105ae565b6040516101359190610d6b565b60405180910390f35b34801561014a57600080fd5b5061016560048036038101906101609190610f2d565b6105e4565b6040516101759493929190610f69565b60405180910390f35b34801561018a57600080fd5b50610193610644565b6040516101a09190610d6b565b60405180910390f35b3480156101b557600080fd5b506101be61064a565b6040516101cb919061105d565b60405180910390f35b3480156101e057600080fd5b506101fb60048036038101906101f691906110b5565b6106d8565b005b34801561020957600080fd5b50610212610774565b60405161021f9190610d6b565b60405180910390f35b34801561023457600080fd5b5061024f600480360381019061024a9190610f2d565b61077a565b60405161025c91906110f5565b60405180910390f35b34801561027157600080fd5b5061027a6107b9565b005b60035481565b60606009805480602002602001604051908101604052809291908181526020016000905b8282101561034c57838290600052602060002090600402016040518060800160405290816000820154815260200160018201548152602001600282015481526020016003820160009054906101000a900473ffffffffffffffffffffffffffffffffffffffff1673ffffffffffffffffffffffffffffffffffffffff1673ffffffffffffffffffffffffffffffffffffffff1681525050815260200190600101906102a6565b50505050905090565b80661e8da789118000610368919061113f565b34146103a9576040517f08c379a00000000000000000000000000000000000000000000000000000000081526004016103a09061121c565b60405180910390fd5b6032600260003373ffffffffffffffffffffffffffffffffffffffff1673ffffffffffffffffffffffffffffffffffffffff168152602001908152602001600020541061042b576040517f08c379a0000000000000000000000000000000000000000000000000000000008152600401610422906112d4565b60405180910390fd5b6000600260003373ffffffffffffffffffffffffffffffffffffffff1673ffffffffffffffffffffffffffffffffffffffff1681526020019081526020016000205414156104d7576001339080600181540180825580915050600190039060005260206000200160009091909190916101000a81548173ffffffffffffffffffffffffffffffffffffffff021916908373ffffffffffffffffffffffffffffffffffffffff1602179055505b80600360008282546104e991906112f4565b925050819055506001600260003373ffffffffffffffffffffffffffffffffffffffff1673ffffffffffffffffffffffffffffffffffffffff168152602001908152602001600020600082825461054091906112f4565b9250508190555080661e8da78911800061055a919061113f565b6005600082825461056b91906112f4565b925050819055507f77a961e0f0c9bf8d1d588961a479403823620f21f40d71f90fc913861aa0a49233826040516105a392919061134a565b60405180910390a150565b6000444260016040516020016105c6939291906114b2565b6040516020818303038152906040528051906020012060001c905090565b600981815481106105f457600080fd5b90600052602060002090600402016000915090508060000154908060010154908060020154908060030160009054906101000a900473ffffffffffffffffffffffffffffffffffffffff16905084565b60055481565b606060018054806020026020016040519081016040528092919081815260200182805480156106ce57602002820191906000526020600020905b8160009054906101000a900473ffffffffffffffffffffffffffffffffffffffff1673ffffffffffffffffffffffffffffffffffffffff1681526020019060010190808311610684575b5050505050905090565b7f000000000000000000000000000000000000000000000000000000000000000073ffffffffffffffffffffffffffffffffffffffff163373ffffffffffffffffffffffffffffffffffffffff1614610766576040517f08c379a000000000000000000000000000000000000000000000000000000000815260040161075d90611537565b60405180910390fd5b61077082826109ca565b5050565b60065481565b6001818154811061078a57600080fd5b906000526020600020016000915054906101000a900473ffffffffffffffffffffffffffffffffffffffff1681565b600460009054906101000a900473ffffffffffffffffffffffffffffffffffffffff1673ffffffffffffffffffffffffffffffffffffffff163373ffffffffffffffffffffffffffffffffffffffff161461081357600080fd5b6108516040518060400160405280601a81526020017f4c6f7474657279206265696e672070726f6365737365642e2e2e000000000000815250610a35565b600060018054905011610899576040517f08c379a0000000000000000000000000000000000000000000000000000000008152600401610890906115c9565b60405180910390fd5b6008547f000000000000000000000000000000000000000000000000000000000000000073ffffffffffffffffffffffffffffffffffffffff166370a08231306040518263ffffffff1660e01b81526004016108f591906110f5565b602060405180830381865afa158015610912573d6000803e3d6000fd5b505050506040513d601f19601f8201168201806040525081019061093691906115fe565b1015610977576040517f08c379a000000000000000000000000000000000000000000000000000000000815260040161096e90611677565b60405180910390fd5b6000610987600754600854610ace565b90507f49cdaa45e000eb9a419ae3b028f7f7bec2179153ebe33293f312866428421326816009805490506040516109bf9291906116a6565b60405180910390a150565b610a09816040518060400160405280601681526020017f72616e646f6d6e65737320696e20636f6e747261637400000000000000000000815250610c1e565b60006009805490509050600060018054905083610a2691906116fe565b90508260068190555050505050565b610acb81604051602401610a4991906117b7565b6040516020818303038152906040527f41304fac000000000000000000000000000000000000000000000000000000007bffffffffffffffffffffffffffffffffffffffffffffffffffffffff19166020820180517bffffffffffffffffffffffffffffffffffffffffffffffffffffffff8381831617835250505050610cba565b50565b60007f000000000000000000000000000000000000000000000000000000000000000073ffffffffffffffffffffffffffffffffffffffff16634000aea07f000000000000000000000000000000000000000000000000000000000000000084866000604051602001610b429291906116a6565b6040516020818303038152906040526040518463ffffffff1660e01b8152600401610b6f9392919061182e565b6020604051808303816000875af1158015610b8e573d6000803e3d6000fd5b505050506040513d601f19601f82011682018060405250810190610bb291906118a4565b506000610bd48460003060008089815260200190815260200160002054610ce3565b9050600160008086815260200190815260200160002054610bf591906112f4565b60008086815260200190815260200160002081905550610c158482610d1f565b91505092915050565b610cb68282604051602401610c349291906118d1565b6040516020818303038152906040527f0fa3f345000000000000000000000000000000000000000000000000000000007bffffffffffffffffffffffffffffffffffffffffffffffffffffffff19166020820180517bffffffffffffffffffffffffffffffffffffffffffffffffffffffff8381831617835250505050610cba565b5050565b60008151905060006a636f6e736f6c652e6c6f679050602083016000808483855afa5050505050565b600084848484604051602001610cfc9493929190611901565b6040516020818303038152906040528051906020012060001c9050949350505050565b60008282604051602001610d34929190611967565b60405160208183030381529060405280519060200120905092915050565b6000819050919050565b610d6581610d52565b82525050565b6000602082019050610d806000830184610d5c565b92915050565b600081519050919050565b600082825260208201905092915050565b6000819050602082019050919050565b610dbb81610d52565b82525050565b600073ffffffffffffffffffffffffffffffffffffffff82169050919050565b6000610dec82610dc1565b9050919050565b610dfc81610de1565b82525050565b608082016000820151610e186000850182610db2565b506020820151610e2b6020850182610db2565b506040820151610e3e6040850182610db2565b506060820151610e516060850182610df3565b50505050565b6000610e638383610e02565b60808301905092915050565b6000602082019050919050565b6000610e8782610d86565b610e918185610d91565b9350610e9c83610da2565b8060005b83811015610ecd578151610eb48882610e57565b9750610ebf83610e6f565b925050600181019050610ea0565b5085935050505092915050565b60006020820190508181036000830152610ef48184610e7c565b905092915050565b600080fd5b610f0a81610d52565b8114610f1557600080fd5b50565b600081359050610f2781610f01565b92915050565b600060208284031215610f4357610f42610efc565b5b6000610f5184828501610f18565b91505092915050565b610f6381610de1565b82525050565b6000608082019050610f7e6000830187610d5c565b610f8b6020830186610d5c565b610f986040830185610d5c565b610fa56060830184610f5a565b95945050505050565b600081519050919050565b600082825260208201905092915050565b6000819050602082019050919050565b6000610fe68383610df3565b60208301905092915050565b6000602082019050919050565b600061100a82610fae565b6110148185610fb9565b935061101f83610fca565b8060005b838110156110505781516110378882610fda565b975061104283610ff2565b925050600181019050611023565b5085935050505092915050565b600060208201905081810360008301526110778184610fff565b905092915050565b6000819050919050565b6110928161107f565b811461109d57600080fd5b50565b6000813590506110af81611089565b92915050565b600080604083850312156110cc576110cb610efc565b5b60006110da858286016110a0565b92505060206110eb85828601610f18565b9150509250929050565b600060208201905061110a6000830184610f5a565b92915050565b7f4e487b7100000000000000000000000000000000000000000000000000000000600052601160045260246000fd5b600061114a82610d52565b915061115583610d52565b9250817fffffffffffffffffffffffffffffffffffffffffffffffffffffffffffffffff048311821515161561118e5761118d611110565b5b828202905092915050565b600082825260208201905092915050565b7f6561636820656e74727920636f737473202e303038362065746865722e20777260008201527f6f6e6720616d6f756e742073656e740000000000000000000000000000000000602082015250565b6000611206602f83611199565b9150611211826111aa565b604082019050919050565b60006020820190508181036000830152611235816111f9565b9050919050565b7f7468697320616464726573732068617320616c7265616479207265616368656460008201527f206d6178696d756d20656e747269657320666f722074686973206c6f7474657260208201527f7920283530290000000000000000000000000000000000000000000000000000604082015250565b60006112be604683611199565b91506112c98261123c565b606082019050919050565b600060208201905081810360008301526112ed816112b1565b9050919050565b60006112ff82610d52565b915061130a83610d52565b9250827fffffffffffffffffffffffffffffffffffffffffffffffffffffffffffffffff0382111561133f5761133e611110565b5b828201905092915050565b600060408201905061135f6000830185610f5a565b61136c6020830184610d5c565b9392505050565b6000819050919050565b61138e61138982610d52565b611373565b82525050565b600081549050919050565b600081905092915050565b60008190508160005260206000209050919050565b6113c881610de1565b82525050565b60006113da83836113bf565b60208301905092915050565b60008160001c9050919050565b600073ffffffffffffffffffffffffffffffffffffffff82169050919050565b6000611426611421836113e6565b6113f3565b9050919050565b60006114398254611413565b9050919050565b6000600182019050919050565b600061145882611394565b611462818561139f565b935061146d836113aa565b8060005b838110156114a5576114828261142d565b61148c88826113ce565b975061149783611440565b925050600181019050611471565b5085935050505092915050565b60006114be828661137d565b6020820191506114ce828561137d565b6020820191506114de828461144d565b9150819050949350505050565b7f4f6e6c7920565246436f6f7264696e61746f722063616e2066756c66696c6c00600082015250565b6000611521601f83611199565b915061152c826114eb565b602082019050919050565b6000602082019050818103600083015261155081611514565b9050919050565b7f6e6f206f6e6520686173206a6f696e656420746865206c6f747465727920796560008201527f7400000000000000000000000000000000000000000000000000000000000000602082015250565b60006115b3602183611199565b91506115be82611557565b604082019050919050565b600060208201905081810360008301526115e2816115a6565b9050919050565b6000815190506115f881610f01565b92915050565b60006020828403121561161457611613610efc565b5b6000611622848285016115e9565b91505092915050565b7f4e6f7420656e6f756768204c494e4b0000000000000000000000000000000000600082015250565b6000611661600f83611199565b915061166c8261162b565b602082019050919050565b6000602082019050818103600083015261169081611654565b9050919050565b6116a08161107f565b82525050565b60006040820190506116bb6000830185611697565b6116c86020830184610d5c565b9392505050565b7f4e487b7100000000000000000000000000000000000000000000000000000000600052601260045260246000fd5b600061170982610d52565b915061171483610d52565b925082611724576117236116cf565b5b828206905092915050565b600081519050919050565b60005b8381101561175857808201518184015260208101905061173d565b83811115611767576000848401525b50505050565b6000601f19601f8301169050919050565b60006117898261172f565b6117938185611199565b93506117a381856020860161173a565b6117ac8161176d565b840191505092915050565b600060208201905081810360008301526117d1818461177e565b905092915050565b600081519050919050565b600082825260208201905092915050565b6000611800826117d9565b61180a81856117e4565b935061181a81856020860161173a565b6118238161176d565b840191505092915050565b60006060820190506118436000830186610f5a565b6118506020830185610d5c565b818103604083015261186281846117f5565b9050949350505050565b60008115159050919050565b6118818161186c565b811461188c57600080fd5b50565b60008151905061189e81611878565b92915050565b6000602082840312156118ba576118b9610efc565b5b60006118c88482850161188f565b91505092915050565b60006040820190506118e66000830185610d5c565b81810360208301526118f8818461177e565b90509392505050565b60006080820190506119166000830187611697565b6119236020830186610d5c565b6119306040830185610f5a565b61193d6060830184610d5c565b95945050505050565b6000819050919050565b61196161195c8261107f565b611946565b82525050565b60006119738285611950565b602082019150611983828461137d565b602082019150819050939250505056fea2646970667358221220fc96b9a97728d23f60daf5ddc49b7f0530edc76772195ddca7c1f1982768fed064736f6c634300080a0033",
  "devdoc": {
    "kind": "dev",
    "methods": {},
    "version": 1
  },
  "userdoc": {
    "kind": "user",
    "methods": {},
    "version": 1
  },
  "storageLayout": {
    "storage": [
      {
        "astId": 79,
        "contract": "contracts/FlashLottery.sol:FlashLottery",
        "label": "nonces",
        "offset": 0,
        "slot": "0",
        "type": "t_mapping(t_bytes32,t_uint256)"
      },
      {
        "astId": 274,
        "contract": "contracts/FlashLottery.sol:FlashLottery",
        "label": "playerPool",
        "offset": 0,
        "slot": "1",
        "type": "t_array(t_address)dyn_storage"
      },
      {
        "astId": 278,
        "contract": "contracts/FlashLottery.sol:FlashLottery",
        "label": "players",
        "offset": 0,
        "slot": "2",
        "type": "t_mapping(t_address,t_uint256)"
      },
      {
        "astId": 280,
        "contract": "contracts/FlashLottery.sol:FlashLottery",
        "label": "entries",
        "offset": 0,
        "slot": "3",
        "type": "t_uint256"
      },
      {
        "astId": 282,
        "contract": "contracts/FlashLottery.sol:FlashLottery",
        "label": "admin",
        "offset": 0,
        "slot": "4",
        "type": "t_address"
      },
      {
        "astId": 284,
        "contract": "contracts/FlashLottery.sol:FlashLottery",
        "label": "prizePool",
        "offset": 0,
        "slot": "5",
        "type": "t_uint256"
      },
      {
        "astId": 286,
        "contract": "contracts/FlashLottery.sol:FlashLottery",
        "label": "randomNumber",
        "offset": 0,
        "slot": "6",
        "type": "t_uint256"
      },
      {
        "astId": 291,
        "contract": "contracts/FlashLottery.sol:FlashLottery",
        "label": "keyHash",
        "offset": 0,
        "slot": "7",
        "type": "t_bytes32"
      },
      {
        "astId": 293,
        "contract": "contracts/FlashLottery.sol:FlashLottery",
        "label": "fee",
        "offset": 0,
        "slot": "8",
        "type": "t_uint256"
      },
      {
        "astId": 297,
        "contract": "contracts/FlashLottery.sol:FlashLottery",
        "label": "lotteryHistory",
        "offset": 0,
        "slot": "9",
        "type": "t_array(t_struct(Lottery)306_storage)dyn_storage"
      }
    ],
    "types": {
      "t_address": {
        "encoding": "inplace",
        "label": "address",
        "numberOfBytes": "20"
      },
      "t_array(t_address)dyn_storage": {
        "base": "t_address",
        "encoding": "dynamic_array",
        "label": "address[]",
        "numberOfBytes": "32"
      },
      "t_array(t_struct(Lottery)306_storage)dyn_storage": {
        "base": "t_struct(Lottery)306_storage",
        "encoding": "dynamic_array",
        "label": "struct FlashLottery.Lottery[]",
        "numberOfBytes": "32"
      },
      "t_bytes32": {
        "encoding": "inplace",
        "label": "bytes32",
        "numberOfBytes": "32"
      },
      "t_mapping(t_address,t_uint256)": {
        "encoding": "mapping",
        "key": "t_address",
        "label": "mapping(address => uint256)",
        "numberOfBytes": "32",
        "value": "t_uint256"
      },
      "t_mapping(t_bytes32,t_uint256)": {
        "encoding": "mapping",
        "key": "t_bytes32",
        "label": "mapping(bytes32 => uint256)",
        "numberOfBytes": "32",
        "value": "t_uint256"
      },
      "t_struct(Lottery)306_storage": {
        "encoding": "inplace",
        "label": "struct FlashLottery.Lottery",
        "members": [
          {
            "astId": 299,
            "contract": "contracts/FlashLottery.sol:FlashLottery",
            "label": "lotteryNumber",
            "offset": 0,
            "slot": "0",
            "type": "t_uint256"
          },
          {
            "astId": 301,
            "contract": "contracts/FlashLottery.sol:FlashLottery",
            "label": "numberOfPlayers",
            "offset": 0,
            "slot": "1",
            "type": "t_uint256"
          },
          {
            "astId": 303,
            "contract": "contracts/FlashLottery.sol:FlashLottery",
            "label": "totalValueWon",
            "offset": 0,
            "slot": "2",
            "type": "t_uint256"
          },
          {
            "astId": 305,
            "contract": "contracts/FlashLottery.sol:FlashLottery",
            "label": "winner",
            "offset": 0,
            "slot": "3",
            "type": "t_address"
          }
        ],
        "numberOfBytes": "128"
      },
      "t_uint256": {
        "encoding": "inplace",
        "label": "uint256",
        "numberOfBytes": "32"
      }
    }
  }
}