{
  "_format": "hh-sol-artifact-1",
  "contractName": "FlashLottery",
  "sourceName": "contracts/FlashLottery.sol",
  "abi": [
    {
      "inputs": [
        {
          "internalType": "address",
          "name": "aggregatorAddress",
          "type": "address"
        }
      ],
      "stateMutability": "nonpayable",
      "type": "constructor"
    },
    {
      "anonymous": false,
      "inputs": [
        {
          "indexed": false,
          "internalType": "address",
          "name": "winner",
          "type": "address"
        },
        {
          "indexed": false,
          "internalType": "uint256",
          "name": "amount",
          "type": "uint256"
        },
        {
          "indexed": false,
          "internalType": "uint256",
          "name": "lotteryNumber",
          "type": "uint256"
        }
      ],
      "name": "LotteryComplete",
      "type": "event"
    },
    {
      "anonymous": false,
      "inputs": [
        {
          "indexed": false,
          "internalType": "address",
          "name": "player",
          "type": "address"
        },
        {
          "indexed": false,
          "internalType": "uint256",
          "name": "numberOfEntries",
          "type": "uint256"
        }
      ],
      "name": "playerJoined",
      "type": "event"
    },
    {
      "inputs": [],
      "name": "entries",
      "outputs": [
        {
          "internalType": "uint256",
          "name": "",
          "type": "uint256"
        }
      ],
      "stateMutability": "view",
      "type": "function"
    },
    {
      "inputs": [],
      "name": "getLotteryHistory",
      "outputs": [
        {
          "components": [
            {
              "internalType": "uint256",
              "name": "lotteryNumber",
              "type": "uint256"
            },
            {
              "internalType": "uint256",
              "name": "numberOfPlayers",
              "type": "uint256"
            },
            {
              "internalType": "uint256",
              "name": "totalValueWon",
              "type": "uint256"
            },
            {
              "internalType": "address",
              "name": "winner",
              "type": "address"
            }
          ],
          "internalType": "struct FlashLottery.Lottery[]",
          "name": "",
          "type": "tuple[]"
        }
      ],
      "stateMutability": "view",
      "type": "function"
    },
    {
      "inputs": [],
      "name": "getPlayerPool",
      "outputs": [
        {
          "internalType": "address[]",
          "name": "",
          "type": "address[]"
        }
      ],
      "stateMutability": "view",
      "type": "function"
    },
    {
      "inputs": [
        {
          "internalType": "uint256",
          "name": "numberOfEntries",
          "type": "uint256"
        }
      ],
      "name": "joinPool",
      "outputs": [],
      "stateMutability": "payable",
      "type": "function"
    },
    {
      "inputs": [
        {
          "internalType": "uint256",
          "name": "",
          "type": "uint256"
        }
      ],
      "name": "lotteryHistory",
      "outputs": [
        {
          "internalType": "uint256",
          "name": "lotteryNumber",
          "type": "uint256"
        },
        {
          "internalType": "uint256",
          "name": "numberOfPlayers",
          "type": "uint256"
        },
        {
          "internalType": "uint256",
          "name": "totalValueWon",
          "type": "uint256"
        },
        {
          "internalType": "address",
          "name": "winner",
          "type": "address"
        }
      ],
      "stateMutability": "view",
      "type": "function"
    },
    {
      "inputs": [],
      "name": "notRandomGenerator",
      "outputs": [
        {
          "internalType": "uint256",
          "name": "",
          "type": "uint256"
        }
      ],
      "stateMutability": "view",
      "type": "function"
    },
    {
      "inputs": [
        {
          "internalType": "uint256",
          "name": "",
          "type": "uint256"
        }
      ],
      "name": "playerPool",
      "outputs": [
        {
          "internalType": "address",
          "name": "",
          "type": "address"
        }
      ],
      "stateMutability": "view",
      "type": "function"
    },
    {
      "inputs": [],
      "name": "prizePool",
      "outputs": [
        {
          "internalType": "uint256",
          "name": "",
          "type": "uint256"
        }
      ],
      "stateMutability": "view",
      "type": "function"
    },
    {
      "inputs": [],
      "name": "processLottery",
      "outputs": [],
      "stateMutability": "nonpayable",
      "type": "function"
    }
  ],
  "bytecode": "0x60806040523480156200001157600080fd5b50604051620016af380380620016af8339818101604052810190620000379190620000e9565b33600360006101000a81548173ffffffffffffffffffffffffffffffffffffffff021916908373ffffffffffffffffffffffffffffffffffffffff160217905550506200011b565b600080fd5b600073ffffffffffffffffffffffffffffffffffffffff82169050919050565b6000620000b18262000084565b9050919050565b620000c381620000a4565b8114620000cf57600080fd5b50565b600081519050620000e381620000b8565b92915050565b6000602082840312156200010257620001016200007f565b5b60006200011284828501620000d2565b91505092915050565b611584806200012b6000396000f3fe6080604052600436106100865760003560e01c80636d6fe230116100595780636d6fe23014610128578063719ce73e146101685780637f63fd3b14610193578063e0ad5502146101be578063fbd48e15146101fb57610086565b80630fc993761461008b5780633149c427146100b657806334e7a19f146100e157806354b46aeb146100fd575b600080fd5b34801561009757600080fd5b506100a0610212565b6040516100ad9190610b6b565b60405180910390f35b3480156100c257600080fd5b506100cb610218565b6040516100d89190610cda565b60405180910390f35b6100fb60048036038101906100f69190610d2d565b6102eb565b005b34801561010957600080fd5b50610112610543565b60405161011f9190610b6b565b60405180910390f35b34801561013457600080fd5b5061014f600480360381019061014a9190610d2d565b610579565b60405161015f9493929190610d69565b60405180910390f35b34801561017457600080fd5b5061017d6105d9565b60405161018a9190610b6b565b60405180910390f35b34801561019f57600080fd5b506101a86105df565b6040516101b59190610e5d565b60405180910390f35b3480156101ca57600080fd5b506101e560048036038101906101e09190610d2d565b61066d565b6040516101f29190610e7f565b60405180910390f35b34801561020757600080fd5b506102106106ac565b005b60025481565b60606005805480602002602001604051908101604052809291908181526020016000905b828210156102e257838290600052602060002090600402016040518060800160405290816000820154815260200160018201548152602001600282015481526020016003820160009054906101000a900473ffffffffffffffffffffffffffffffffffffffff1673ffffffffffffffffffffffffffffffffffffffff1673ffffffffffffffffffffffffffffffffffffffff16815250508152602001906001019061023c565b50505050905090565b80661e8da7891180006102fe9190610ec9565b341461033f576040517f08c379a000000000000000000000000000000000000000000000000000000000815260040161033690610fa6565b60405180910390fd5b6032600160003373ffffffffffffffffffffffffffffffffffffffff1673ffffffffffffffffffffffffffffffffffffffff16815260200190815260200160002054106103c1576040517f08c379a00000000000000000000000000000000000000000000000000000000081526004016103b89061105e565b60405180910390fd5b6000600160003373ffffffffffffffffffffffffffffffffffffffff1673ffffffffffffffffffffffffffffffffffffffff16815260200190815260200160002054141561046d576000339080600181540180825580915050600190039060005260206000200160009091909190916101000a81548173ffffffffffffffffffffffffffffffffffffffff021916908373ffffffffffffffffffffffffffffffffffffffff1602179055505b806002600082825461047f919061107e565b9250508190555060018060003373ffffffffffffffffffffffffffffffffffffffff1673ffffffffffffffffffffffffffffffffffffffff16815260200190815260200160002060008282546104d5919061107e565b9250508190555080661e8da7891180006104ef9190610ec9565b60046000828254610500919061107e565b925050819055507f77a961e0f0c9bf8d1d588961a479403823620f21f40d71f90fc913861aa0a49233826040516105389291906110d4565b60405180910390a150565b60004442600060405160200161055b9392919061123c565b6040516020818303038152906040528051906020012060001c905090565b6005818154811061058957600080fd5b90600052602060002090600402016000915090508060000154908060010154908060020154908060030160009054906101000a900473ffffffffffffffffffffffffffffffffffffffff16905084565b60045481565b6060600080548060200260200160405190810160405280929190818152602001828054801561066357602002820191906000526020600020905b8160009054906101000a900473ffffffffffffffffffffffffffffffffffffffff1673ffffffffffffffffffffffffffffffffffffffff1681526020019060010190808311610619575b5050505050905090565b6000818154811061067d57600080fd5b906000526020600020016000915054906101000a900473ffffffffffffffffffffffffffffffffffffffff1681565b600360009054906101000a900473ffffffffffffffffffffffffffffffffffffffff1673ffffffffffffffffffffffffffffffffffffffff163373ffffffffffffffffffffffffffffffffffffffff161461070657600080fd5b600080805490501161074d576040517f08c379a0000000000000000000000000000000000000000000000000000000008152600401610744906112e7565b60405180910390fd5b6000808054905061075c610543565b6107669190611336565b9050600080828154811061077d5761077c611367565b5b9060005260206000200160009054906101000a900473ffffffffffffffffffffffffffffffffffffffff1690506000606460556004546107bd9190610ec9565b6107c79190611396565b9050600060058054905090506000604051806080016040528083815260200160008054905081526020018481526020018573ffffffffffffffffffffffffffffffffffffffff168152509050600581908060018154018082558091505060019003906000526020600020906004020160009091909190915060008201518160000155602082015181600101556040820151816002015560608201518160030160006101000a81548173ffffffffffffffffffffffffffffffffffffffff021916908373ffffffffffffffffffffffffffffffffffffffff160217905550505060008473ffffffffffffffffffffffffffffffffffffffff16846040516108cc906113f8565b60006040518083038185875af1925050503d8060008114610909576040519150601f19603f3d011682016040523d82523d6000602084013e61090e565b606091505b5050905080610952576040517f08c379a00000000000000000000000000000000000000000000000000000000081526004016109499061147f565b60405180910390fd5b60005b6000805490508110156109f75760006001600080848154811061097b5761097a611367565b5b9060005260206000200160009054906101000a900473ffffffffffffffffffffffffffffffffffffffff1673ffffffffffffffffffffffffffffffffffffffff1673ffffffffffffffffffffffffffffffffffffffff1681526020019081526020016000208190555080806109ef9061149f565b915050610955565b506000600481905550600067ffffffffffffffff811115610a1b57610a1a6114e8565b5b604051908082528060200260200182016040528015610a495781602001602082028036833780820191505090505b5060009080519060200190610a5f929190610aab565b5060006002819055507fa005899a18824fb8a813e5acdfaa1ef0b5f0a48dc4ff3d68ad9204abe6f8b467858585604051610a9b93929190611517565b60405180910390a1505050505050565b828054828255906000526020600020908101928215610b24579160200282015b82811115610b235782518260006101000a81548173ffffffffffffffffffffffffffffffffffffffff021916908373ffffffffffffffffffffffffffffffffffffffff16021790555091602001919060010190610acb565b5b509050610b319190610b35565b5090565b5b80821115610b4e576000816000905550600101610b36565b5090565b6000819050919050565b610b6581610b52565b82525050565b6000602082019050610b806000830184610b5c565b92915050565b600081519050919050565b600082825260208201905092915050565b6000819050602082019050919050565b610bbb81610b52565b82525050565b600073ffffffffffffffffffffffffffffffffffffffff82169050919050565b6000610bec82610bc1565b9050919050565b610bfc81610be1565b82525050565b608082016000820151610c186000850182610bb2565b506020820151610c2b6020850182610bb2565b506040820151610c3e6040850182610bb2565b506060820151610c516060850182610bf3565b50505050565b6000610c638383610c02565b60808301905092915050565b6000602082019050919050565b6000610c8782610b86565b610c918185610b91565b9350610c9c83610ba2565b8060005b83811015610ccd578151610cb48882610c57565b9750610cbf83610c6f565b925050600181019050610ca0565b5085935050505092915050565b60006020820190508181036000830152610cf48184610c7c565b905092915050565b600080fd5b610d0a81610b52565b8114610d1557600080fd5b50565b600081359050610d2781610d01565b92915050565b600060208284031215610d4357610d42610cfc565b5b6000610d5184828501610d18565b91505092915050565b610d6381610be1565b82525050565b6000608082019050610d7e6000830187610b5c565b610d8b6020830186610b5c565b610d986040830185610b5c565b610da56060830184610d5a565b95945050505050565b600081519050919050565b600082825260208201905092915050565b6000819050602082019050919050565b6000610de68383610bf3565b60208301905092915050565b6000602082019050919050565b6000610e0a82610dae565b610e148185610db9565b9350610e1f83610dca565b8060005b83811015610e50578151610e378882610dda565b9750610e4283610df2565b925050600181019050610e23565b5085935050505092915050565b60006020820190508181036000830152610e778184610dff565b905092915050565b6000602082019050610e946000830184610d5a565b92915050565b7f4e487b7100000000000000000000000000000000000000000000000000000000600052601160045260246000fd5b6000610ed482610b52565b9150610edf83610b52565b9250817fffffffffffffffffffffffffffffffffffffffffffffffffffffffffffffffff0483118215151615610f1857610f17610e9a565b5b828202905092915050565b600082825260208201905092915050565b7f6561636820656e74727920636f737473202e303038362065746865722e20777260008201527f6f6e6720616d6f756e742073656e740000000000000000000000000000000000602082015250565b6000610f90602f83610f23565b9150610f9b82610f34565b604082019050919050565b60006020820190508181036000830152610fbf81610f83565b9050919050565b7f7468697320616464726573732068617320616c7265616479207265616368656460008201527f206d6178696d756d20656e747269657320666f722074686973206c6f7474657260208201527f7920283530290000000000000000000000000000000000000000000000000000604082015250565b6000611048604683610f23565b915061105382610fc6565b606082019050919050565b600060208201905081810360008301526110778161103b565b9050919050565b600061108982610b52565b915061109483610b52565b9250827fffffffffffffffffffffffffffffffffffffffffffffffffffffffffffffffff038211156110c9576110c8610e9a565b5b828201905092915050565b60006040820190506110e96000830185610d5a565b6110f66020830184610b5c565b9392505050565b6000819050919050565b61111861111382610b52565b6110fd565b82525050565b600081549050919050565b600081905092915050565b60008190508160005260206000209050919050565b61115281610be1565b82525050565b60006111648383611149565b60208301905092915050565b60008160001c9050919050565b600073ffffffffffffffffffffffffffffffffffffffff82169050919050565b60006111b06111ab83611170565b61117d565b9050919050565b60006111c3825461119d565b9050919050565b6000600182019050919050565b60006111e28261111e565b6111ec8185611129565b93506111f783611134565b8060005b8381101561122f5761120c826111b7565b6112168882611158565b9750611221836111ca565b9250506001810190506111fb565b5085935050505092915050565b60006112488286611107565b6020820191506112588285611107565b60208201915061126882846111d7565b9150819050949350505050565b7f6e6f206f6e6520686173206a6f696e656420746865206c6f747465727920796560008201527f7400000000000000000000000000000000000000000000000000000000000000602082015250565b60006112d1602183610f23565b91506112dc82611275565b604082019050919050565b60006020820190508181036000830152611300816112c4565b9050919050565b7f4e487b7100000000000000000000000000000000000000000000000000000000600052601260045260246000fd5b600061134182610b52565b915061134c83610b52565b92508261135c5761135b611307565b5b828206905092915050565b7f4e487b7100000000000000000000000000000000000000000000000000000000600052603260045260246000fd5b60006113a182610b52565b91506113ac83610b52565b9250826113bc576113bb611307565b5b828204905092915050565b600081905092915050565b50565b60006113e26000836113c7565b91506113ed826113d2565b600082019050919050565b6000611403826113d5565b9150819050919050565b7f7472616e73666572206f662077696e6e696e672066756e6473206e6f7420737560008201527f636365737366756c000000000000000000000000000000000000000000000000602082015250565b6000611469602883610f23565b91506114748261140d565b604082019050919050565b600060208201905081810360008301526114988161145c565b9050919050565b60006114aa82610b52565b91507fffffffffffffffffffffffffffffffffffffffffffffffffffffffffffffffff8214156114dd576114dc610e9a565b5b600182019050919050565b7f4e487b7100000000000000000000000000000000000000000000000000000000600052604160045260246000fd5b600060608201905061152c6000830186610d5a565b6115396020830185610b5c565b6115466040830184610b5c565b94935050505056fea264697066735822122022acc15c897a6eecea5e737b3c6c6324f6a77bc6c96632f4bcb5edb60c28821d64736f6c634300080a0033",
  "linkReferences": {},
  "deployedLinkReferences": {}
}