{
  "_format": "hh-sol-artifact-1",
  "contractName": "FlashLottery",
  "sourceName": "contracts/FlashLottery.sol",
  "abi": [
    {
      "inputs": [
        {
          "internalType": "address",
          "name": "aggregatorAddress",
          "type": "address"
        }
      ],
      "stateMutability": "nonpayable",
      "type": "constructor"
    },
    {
      "anonymous": false,
      "inputs": [
        {
          "indexed": false,
          "internalType": "address",
          "name": "winner",
          "type": "address"
        },
        {
          "indexed": false,
          "internalType": "uint256",
          "name": "amount",
          "type": "uint256"
        },
        {
          "indexed": false,
          "internalType": "uint256",
          "name": "lotteryNumber",
          "type": "uint256"
        }
      ],
      "name": "lotteryComplete",
      "type": "event"
    },
    {
      "anonymous": false,
      "inputs": [
        {
          "indexed": false,
          "internalType": "address",
          "name": "player",
          "type": "address"
        },
        {
          "indexed": false,
          "internalType": "uint256",
          "name": "numberOfEntries",
          "type": "uint256"
        }
      ],
      "name": "playerJoined",
      "type": "event"
    },
    {
      "inputs": [],
      "name": "getPlayerPool",
      "outputs": [
        {
          "internalType": "address[]",
          "name": "",
          "type": "address[]"
        }
      ],
      "stateMutability": "view",
      "type": "function"
    },
    {
      "inputs": [
        {
          "internalType": "uint256",
          "name": "numberOfEntries",
          "type": "uint256"
        }
      ],
      "name": "joinPool",
      "outputs": [],
      "stateMutability": "payable",
      "type": "function"
    },
    {
      "inputs": [
        {
          "internalType": "uint256",
          "name": "",
          "type": "uint256"
        }
      ],
      "name": "lotteryHistory",
      "outputs": [
        {
          "internalType": "uint256",
          "name": "lotteryNumber",
          "type": "uint256"
        },
        {
          "internalType": "uint256",
          "name": "numberOfPlayers",
          "type": "uint256"
        },
        {
          "internalType": "uint256",
          "name": "totalValueWon",
          "type": "uint256"
        },
        {
          "internalType": "address",
          "name": "winner",
          "type": "address"
        },
        {
          "internalType": "bool",
          "name": "flashDecision",
          "type": "bool"
        }
      ],
      "stateMutability": "view",
      "type": "function"
    },
    {
      "inputs": [],
      "name": "notRandomGenerator",
      "outputs": [
        {
          "internalType": "uint256",
          "name": "",
          "type": "uint256"
        }
      ],
      "stateMutability": "view",
      "type": "function"
    },
    {
      "inputs": [
        {
          "internalType": "uint256",
          "name": "",
          "type": "uint256"
        }
      ],
      "name": "playerPool",
      "outputs": [
        {
          "internalType": "address",
          "name": "",
          "type": "address"
        }
      ],
      "stateMutability": "view",
      "type": "function"
    },
    {
      "inputs": [],
      "name": "prizePool",
      "outputs": [
        {
          "internalType": "uint256",
          "name": "",
          "type": "uint256"
        }
      ],
      "stateMutability": "view",
      "type": "function"
    },
    {
      "inputs": [],
      "name": "processLottery",
      "outputs": [
        {
          "internalType": "address",
          "name": "",
          "type": "address"
        },
        {
          "internalType": "uint256",
          "name": "",
          "type": "uint256"
        }
      ],
      "stateMutability": "nonpayable",
      "type": "function"
    }
  ],
  "bytecode": "0x60806040523480156200001157600080fd5b50604051620013503803806200135083398181016040528101906200003791906200012a565b33600260006101000a81548173ffffffffffffffffffffffffffffffffffffffff021916908373ffffffffffffffffffffffffffffffffffffffff16021790555080600460006101000a81548173ffffffffffffffffffffffffffffffffffffffff021916908373ffffffffffffffffffffffffffffffffffffffff160217905550506200015c565b600080fd5b600073ffffffffffffffffffffffffffffffffffffffff82169050919050565b6000620000f282620000c5565b9050919050565b6200010481620000e5565b81146200011057600080fd5b50565b6000815190506200012481620000f9565b92915050565b600060208284031215620001435762000142620000c0565b5b6000620001538482850162000113565b91505092915050565b6111e4806200016c6000396000f3fe6080604052600436106100705760003560e01c8063719ce73e1161004e578063719ce73e146100fd5780637f63fd3b14610128578063e0ad550214610153578063fbd48e151461019057610070565b806334e7a19f1461007557806354b46aeb146100915780636d6fe230146100bc575b600080fd5b61008f600480360381019061008a91906109d1565b6101bc565b005b34801561009d57600080fd5b506100a66103fb565b6040516100b39190610a0d565b60405180910390f35b3480156100c857600080fd5b506100e360048036038101906100de91906109d1565b610431565b6040516100f4959493929190610a84565b60405180910390f35b34801561010957600080fd5b506101126104a4565b60405161011f9190610a0d565b60405180910390f35b34801561013457600080fd5b5061013d6104aa565b60405161014a9190610b95565b60405180910390f35b34801561015f57600080fd5b5061017a600480360381019061017591906109d1565b610538565b6040516101879190610bb7565b60405180910390f35b34801561019c57600080fd5b506101a5610577565b6040516101b3929190610bd2565b60405180910390f35b80661e8da7891180006101cf9190610c2a565b3414610210576040517f08c379a000000000000000000000000000000000000000000000000000000000815260040161020790610d07565b60405180910390fd5b6032600160003373ffffffffffffffffffffffffffffffffffffffff1673ffffffffffffffffffffffffffffffffffffffff1681526020019081526020016000205410610292576040517f08c379a000000000000000000000000000000000000000000000000000000000815260040161028990610dbf565b60405180910390fd5b6000600160003373ffffffffffffffffffffffffffffffffffffffff1673ffffffffffffffffffffffffffffffffffffffff16815260200190815260200160002054141561033e576000339080600181540180825580915050600190039060005260206000200160009091909190916101000a81548173ffffffffffffffffffffffffffffffffffffffff021916908373ffffffffffffffffffffffffffffffffffffffff1602179055505b60018060003373ffffffffffffffffffffffffffffffffffffffff1673ffffffffffffffffffffffffffffffffffffffff168152602001908152602001600020600082825461038d9190610ddf565b9250508190555080661e8da7891180006103a79190610c2a565b600360008282546103b89190610ddf565b925050819055507f77a961e0f0c9bf8d1d588961a479403823620f21f40d71f90fc913861aa0a49233826040516103f0929190610bd2565b60405180910390a150565b60004442600060405160200161041393929190610f74565b6040516020818303038152906040528051906020012060001c905090565b6005818154811061044157600080fd5b90600052602060002090600402016000915090508060000154908060010154908060020154908060030160009054906101000a900473ffffffffffffffffffffffffffffffffffffffff16908060030160149054906101000a900460ff16905085565b60035481565b6060600080548060200260200160405190810160405280929190818152602001828054801561052e57602002820191906000526020600020905b8160009054906101000a900473ffffffffffffffffffffffffffffffffffffffff1673ffffffffffffffffffffffffffffffffffffffff16815260200190600101908083116104e4575b5050505050905090565b6000818154811061054857600080fd5b906000526020600020016000915054906101000a900473ffffffffffffffffffffffffffffffffffffffff1681565b600080600260009054906101000a900473ffffffffffffffffffffffffffffffffffffffff1673ffffffffffffffffffffffffffffffffffffffff163373ffffffffffffffffffffffffffffffffffffffff16146105d457600080fd5b600080805490501161061b576040517f08c379a00000000000000000000000000000000000000000000000000000000081526004016106129061101f565b60405180910390fd5b6000808054905061062a6103fb565b610634919061106e565b9050600080828154811061064b5761064a61109f565b5b9060005260206000200160009054906101000a900473ffffffffffffffffffffffffffffffffffffffff16905060006064605560035461068b9190610c2a565b61069591906110ce565b90506000600580549050905060006040518060a0016040528083815260200160008054905081526020018481526020018573ffffffffffffffffffffffffffffffffffffffff168152602001600015158152509050600581908060018154018082558091505060019003906000526020600020906004020160009091909190915060008201518160000155602082015181600101556040820151816002015560608201518160030160006101000a81548173ffffffffffffffffffffffffffffffffffffffff021916908373ffffffffffffffffffffffffffffffffffffffff16021790555060808201518160030160146101000a81548160ff021916908315150217905550505060005b600080549050811015610842576000600160008084815481106107c6576107c561109f565b5b9060005260206000200160009054906101000a900473ffffffffffffffffffffffffffffffffffffffff1673ffffffffffffffffffffffffffffffffffffffff1673ffffffffffffffffffffffffffffffffffffffff16815260200190815260200160002081905550808061083a906110ff565b9150506107a0565b506000600381905550600067ffffffffffffffff81111561086657610865611148565b5b6040519080825280602002602001820160405280156108945781602001602082028036833780820191505090505b50600090805190602001906108aa9291906108ef565b507f66d1cdf1def50940a8dd987057699465da70289d3115fc59f66a1b4fddd48f8c8484846040516108de93929190611177565b60405180910390a150505050509091565b828054828255906000526020600020908101928215610968579160200282015b828111156109675782518260006101000a81548173ffffffffffffffffffffffffffffffffffffffff021916908373ffffffffffffffffffffffffffffffffffffffff1602179055509160200191906001019061090f565b5b5090506109759190610979565b5090565b5b8082111561099257600081600090555060010161097a565b5090565b600080fd5b6000819050919050565b6109ae8161099b565b81146109b957600080fd5b50565b6000813590506109cb816109a5565b92915050565b6000602082840312156109e7576109e6610996565b5b60006109f5848285016109bc565b91505092915050565b610a078161099b565b82525050565b6000602082019050610a2260008301846109fe565b92915050565b600073ffffffffffffffffffffffffffffffffffffffff82169050919050565b6000610a5382610a28565b9050919050565b610a6381610a48565b82525050565b60008115159050919050565b610a7e81610a69565b82525050565b600060a082019050610a9960008301886109fe565b610aa660208301876109fe565b610ab360408301866109fe565b610ac06060830185610a5a565b610acd6080830184610a75565b9695505050505050565b600081519050919050565b600082825260208201905092915050565b6000819050602082019050919050565b610b0c81610a48565b82525050565b6000610b1e8383610b03565b60208301905092915050565b6000602082019050919050565b6000610b4282610ad7565b610b4c8185610ae2565b9350610b5783610af3565b8060005b83811015610b88578151610b6f8882610b12565b9750610b7a83610b2a565b925050600181019050610b5b565b5085935050505092915050565b60006020820190508181036000830152610baf8184610b37565b905092915050565b6000602082019050610bcc6000830184610a5a565b92915050565b6000604082019050610be76000830185610a5a565b610bf460208301846109fe565b9392505050565b7f4e487b7100000000000000000000000000000000000000000000000000000000600052601160045260246000fd5b6000610c358261099b565b9150610c408361099b565b9250817fffffffffffffffffffffffffffffffffffffffffffffffffffffffffffffffff0483118215151615610c7957610c78610bfb565b5b828202905092915050565b600082825260208201905092915050565b7f6561636820656e74727920636f737473202e303038362065746865722e20777260008201527f6f6e6720616d6f756e742073656e740000000000000000000000000000000000602082015250565b6000610cf1602f83610c84565b9150610cfc82610c95565b604082019050919050565b60006020820190508181036000830152610d2081610ce4565b9050919050565b7f7468697320616464726573732068617320616c7265616479207265616368656460008201527f206d6178696d756d20656e747269657320666f722074686973206c6f7474657260208201527f7920283530290000000000000000000000000000000000000000000000000000604082015250565b6000610da9604683610c84565b9150610db482610d27565b606082019050919050565b60006020820190508181036000830152610dd881610d9c565b9050919050565b6000610dea8261099b565b9150610df58361099b565b9250827fffffffffffffffffffffffffffffffffffffffffffffffffffffffffffffffff03821115610e2a57610e29610bfb565b5b828201905092915050565b6000819050919050565b610e50610e4b8261099b565b610e35565b82525050565b600081549050919050565b600081905092915050565b60008190508160005260206000209050919050565b610e8a81610a48565b82525050565b6000610e9c8383610e81565b60208301905092915050565b60008160001c9050919050565b600073ffffffffffffffffffffffffffffffffffffffff82169050919050565b6000610ee8610ee383610ea8565b610eb5565b9050919050565b6000610efb8254610ed5565b9050919050565b6000600182019050919050565b6000610f1a82610e56565b610f248185610e61565b9350610f2f83610e6c565b8060005b83811015610f6757610f4482610eef565b610f4e8882610e90565b9750610f5983610f02565b925050600181019050610f33565b5085935050505092915050565b6000610f808286610e3f565b602082019150610f908285610e3f565b602082019150610fa08284610f0f565b9150819050949350505050565b7f6e6f206f6e6520686173206a6f696e656420746865206c6f747465727920796560008201527f7400000000000000000000000000000000000000000000000000000000000000602082015250565b6000611009602183610c84565b915061101482610fad565b604082019050919050565b6000602082019050818103600083015261103881610ffc565b9050919050565b7f4e487b7100000000000000000000000000000000000000000000000000000000600052601260045260246000fd5b60006110798261099b565b91506110848361099b565b9250826110945761109361103f565b5b828206905092915050565b7f4e487b7100000000000000000000000000000000000000000000000000000000600052603260045260246000fd5b60006110d98261099b565b91506110e48361099b565b9250826110f4576110f361103f565b5b828204905092915050565b600061110a8261099b565b91507fffffffffffffffffffffffffffffffffffffffffffffffffffffffffffffffff82141561113d5761113c610bfb565b5b600182019050919050565b7f4e487b7100000000000000000000000000000000000000000000000000000000600052604160045260246000fd5b600060608201905061118c6000830186610a5a565b61119960208301856109fe565b6111a660408301846109fe565b94935050505056fea2646970667358221220708801028970de59a4261840a57fe819b45ee767a97528088b0cbcd4fccf9cc764736f6c634300080a0033",
  "linkReferences": {},
  "deployedLinkReferences": {}
}