{
  "_format": "hh-sol-artifact-1",
  "contractName": "FlashLottery",
  "sourceName": "contracts/FlashLottery.sol",
  "abi": [
    {
      "inputs": [
        {
          "internalType": "address",
          "name": "aggregatorAddress",
          "type": "address"
        }
      ],
      "stateMutability": "nonpayable",
      "type": "constructor"
    },
    {
      "anonymous": false,
      "inputs": [
        {
          "indexed": false,
          "internalType": "address",
          "name": "winner",
          "type": "address"
        },
        {
          "indexed": false,
          "internalType": "uint256",
          "name": "amount",
          "type": "uint256"
        },
        {
          "indexed": false,
          "internalType": "uint256",
          "name": "lotteryNumber",
          "type": "uint256"
        }
      ],
      "name": "lotteryComplete",
      "type": "event"
    },
    {
      "anonymous": false,
      "inputs": [
        {
          "indexed": false,
          "internalType": "address",
          "name": "player",
          "type": "address"
        },
        {
          "indexed": false,
          "internalType": "uint256",
          "name": "numberOfEntries",
          "type": "uint256"
        }
      ],
      "name": "playerJoined",
      "type": "event"
    },
    {
      "inputs": [
        {
          "internalType": "address",
          "name": "_tokenBorrow",
          "type": "address"
        },
        {
          "internalType": "uint256",
          "name": "_amount",
          "type": "uint256"
        }
      ],
      "name": "flashSwapArb",
      "outputs": [],
      "stateMutability": "nonpayable",
      "type": "function"
    },
    {
      "inputs": [],
      "name": "getPlayerPool",
      "outputs": [
        {
          "internalType": "address[]",
          "name": "",
          "type": "address[]"
        }
      ],
      "stateMutability": "view",
      "type": "function"
    },
    {
      "inputs": [
        {
          "internalType": "uint256",
          "name": "numberOfEntries",
          "type": "uint256"
        }
      ],
      "name": "joinPool",
      "outputs": [],
      "stateMutability": "payable",
      "type": "function"
    },
    {
      "inputs": [
        {
          "internalType": "uint256",
          "name": "",
          "type": "uint256"
        }
      ],
      "name": "lotteryHistory",
      "outputs": [
        {
          "internalType": "uint256",
          "name": "lotteryNumber",
          "type": "uint256"
        },
        {
          "internalType": "uint256",
          "name": "numberOfPlayers",
          "type": "uint256"
        },
        {
          "internalType": "uint256",
          "name": "totalValueWon",
          "type": "uint256"
        },
        {
          "internalType": "address",
          "name": "winner",
          "type": "address"
        },
        {
          "internalType": "bool",
          "name": "flashDecision",
          "type": "bool"
        }
      ],
      "stateMutability": "view",
      "type": "function"
    },
    {
      "inputs": [],
      "name": "notRandomGenerator",
      "outputs": [
        {
          "internalType": "uint256",
          "name": "",
          "type": "uint256"
        }
      ],
      "stateMutability": "view",
      "type": "function"
    },
    {
      "inputs": [
        {
          "internalType": "uint256",
          "name": "",
          "type": "uint256"
        }
      ],
      "name": "playerPool",
      "outputs": [
        {
          "internalType": "address",
          "name": "",
          "type": "address"
        }
      ],
      "stateMutability": "view",
      "type": "function"
    },
    {
      "inputs": [],
      "name": "prizePool",
      "outputs": [
        {
          "internalType": "uint256",
          "name": "",
          "type": "uint256"
        }
      ],
      "stateMutability": "view",
      "type": "function"
    },
    {
      "inputs": [],
      "name": "processLottery",
      "outputs": [
        {
          "internalType": "address",
          "name": "",
          "type": "address"
        },
        {
          "internalType": "uint256",
          "name": "",
          "type": "uint256"
        }
      ],
      "stateMutability": "nonpayable",
      "type": "function"
    },
    {
      "inputs": [
        {
          "internalType": "address",
          "name": "_sender",
          "type": "address"
        },
        {
          "internalType": "uint256",
          "name": "_amount0",
          "type": "uint256"
        },
        {
          "internalType": "uint256",
          "name": "_amount1",
          "type": "uint256"
        },
        {
          "internalType": "bytes",
          "name": "_data",
          "type": "bytes"
        }
      ],
      "name": "uniswapV2Call",
      "outputs": [],
      "stateMutability": "nonpayable",
      "type": "function"
    }
  ],
  "bytecode": "0x60806040523480156200001157600080fd5b5060405162001fab38038062001fab8339818101604052810190620000379190620000d7565b33600260006101000a81548173ffffffffffffffffffffffffffffffffffffffff021916908373ffffffffffffffffffffffffffffffffffffffff16021790555080600460006101000a81548173ffffffffffffffffffffffffffffffffffffffff021916908373ffffffffffffffffffffffffffffffffffffffff1602179055505062000151565b600081519050620000d18162000137565b92915050565b600060208284031215620000ea57600080fd5b6000620000fa84828501620000c0565b91505092915050565b6000620001108262000117565b9050919050565b600073ffffffffffffffffffffffffffffffffffffffff82169050919050565b620001428162000103565b81146200014e57600080fd5b50565b611e4a80620001616000396000f3fe6080604052600436106100865760003560e01c80636d6fe230116100595780636d6fe23014610124578063719ce73e146101655780637f63fd3b14610190578063e0ad5502146101bb578063fbd48e15146101f857610086565b80630d5acac21461008b57806310d1e85c146100b457806334e7a19f146100dd57806354b46aeb146100f9575b600080fd5b34801561009757600080fd5b506100b260048036038101906100ad919061131e565b610224565b005b3480156100c057600080fd5b506100db60048036038101906100d6919061135a565b610570565b005b6100f760048036038101906100f29190611403565b6108b0565b005b34801561010557600080fd5b5061010e610aef565b60405161011b919061196a565b60405180910390f35b34801561013057600080fd5b5061014b60048036038101906101469190611403565b610b25565b60405161015c959493929190611a01565b60405180910390f35b34801561017157600080fd5b5061017a610b98565b604051610187919061196a565b60405180910390f35b34801561019c57600080fd5b506101a5610b9e565b6040516101b291906118a8565b60405180910390f35b3480156101c757600080fd5b506101e260048036038101906101dd9190611403565b610c2c565b6040516101ef9190611804565b60405180910390f35b34801561020457600080fd5b5061020d610c6b565b60405161021b929190611848565b60405180910390f35b6000735c69bee701ef814a2b6a3edd4b1652cb9cc5aa6f73ffffffffffffffffffffffffffffffffffffffff1663e6a439058473c02aaa39b223fe8d0a0e5c4f27ead9083c756cc26040518363ffffffff1660e01b815260040161028992919061181f565b60206040518083038186803b1580156102a157600080fd5b505afa1580156102b5573d6000803e3d6000fd5b505050506040513d601f19601f820116820180604052508101906102d991906112b9565b9050600073ffffffffffffffffffffffffffffffffffffffff168173ffffffffffffffffffffffffffffffffffffffff16141561034b576040517f08c379a00000000000000000000000000000000000000000000000000000000081526004016103429061192a565b60405180910390fd5b60008173ffffffffffffffffffffffffffffffffffffffff16630dfe16816040518163ffffffff1660e01b815260040160206040518083038186803b15801561039357600080fd5b505afa1580156103a7573d6000803e3d6000fd5b505050506040513d601f19601f820116820180604052508101906103cb91906112b9565b905060008273ffffffffffffffffffffffffffffffffffffffff1663d21220a76040518163ffffffff1660e01b815260040160206040518083038186803b15801561041557600080fd5b505afa158015610429573d6000803e3d6000fd5b505050506040513d601f19601f8201168201806040525081019061044d91906112b9565b905060008273ffffffffffffffffffffffffffffffffffffffff168673ffffffffffffffffffffffffffffffffffffffff161461048b57600061048d565b845b905060008273ffffffffffffffffffffffffffffffffffffffff168773ffffffffffffffffffffffffffffffffffffffff16146104cb5760006104cd565b855b9050600087876040516020016104e4929190611848565b60405160208183030381529060405290508573ffffffffffffffffffffffffffffffffffffffff1663022c0d9f848430856040518563ffffffff1660e01b815260040161053494939291906119b5565b600060405180830381600087803b15801561054e57600080fd5b505af1158015610562573d6000803e3d6000fd5b505050505050505050505050565b60003373ffffffffffffffffffffffffffffffffffffffff16630dfe16816040518163ffffffff1660e01b815260040160206040518083038186803b1580156105b857600080fd5b505afa1580156105cc573d6000803e3d6000fd5b505050506040513d601f19601f820116820180604052508101906105f091906112b9565b905060003373ffffffffffffffffffffffffffffffffffffffff1663d21220a76040518163ffffffff1660e01b815260040160206040518083038186803b15801561063a57600080fd5b505afa15801561064e573d6000803e3d6000fd5b505050506040513d601f19601f8201168201806040525081019061067291906112b9565b90506000735c69bee701ef814a2b6a3edd4b1652cb9cc5aa6f73ffffffffffffffffffffffffffffffffffffffff1663e6a4390584846040518363ffffffff1660e01b81526004016106c592919061181f565b60206040518083038186803b1580156106dd57600080fd5b505afa1580156106f1573d6000803e3d6000fd5b505050506040513d601f19601f8201168201806040525081019061071591906112b9565b90508073ffffffffffffffffffffffffffffffffffffffff163373ffffffffffffffffffffffffffffffffffffffff1614610785576040517f08c379a000000000000000000000000000000000000000000000000000000000815260040161077c9061190a565b60405180910390fd5b600080868681019061079791906112e2565b915091506107da816040518060400160405280600681526020017f616d6f756e74000000000000000000000000000000000000000000000000000081525061109a565b600060016103e56003846107ee9190611b84565b6107f89190611b53565b6108029190611afd565b9050600081836108129190611afd565b90508373ffffffffffffffffffffffffffffffffffffffff1663a9059cbb86836040518363ffffffff1660e01b815260040161084f929190611848565b602060405180830381600087803b15801561086957600080fd5b505af115801561087d573d6000803e3d6000fd5b505050506040513d601f19601f820116820180604052508101906108a191906113da565b50505050505050505050505050565b80661e8da7891180006108c39190611b84565b3414610904576040517f08c379a00000000000000000000000000000000000000000000000000000000081526004016108fb906118ea565b60405180910390fd5b6032600160003373ffffffffffffffffffffffffffffffffffffffff1673ffffffffffffffffffffffffffffffffffffffff1681526020019081526020016000205410610986576040517f08c379a000000000000000000000000000000000000000000000000000000000815260040161097d9061194a565b60405180910390fd5b6000600160003373ffffffffffffffffffffffffffffffffffffffff1673ffffffffffffffffffffffffffffffffffffffff168152602001908152602001600020541415610a32576000339080600181540180825580915050600190039060005260206000200160009091909190916101000a81548173ffffffffffffffffffffffffffffffffffffffff021916908373ffffffffffffffffffffffffffffffffffffffff1602179055505b60018060003373ffffffffffffffffffffffffffffffffffffffff1673ffffffffffffffffffffffffffffffffffffffff1681526020019081526020016000206000828254610a819190611afd565b9250508190555080661e8da789118000610a9b9190611b84565b60036000828254610aac9190611afd565b925050819055507f77a961e0f0c9bf8d1d588961a479403823620f21f40d71f90fc913861aa0a4923382604051610ae4929190611848565b60405180910390a150565b600044426000604051602001610b07939291906117cb565b6040516020818303038152906040528051906020012060001c905090565b60058181548110610b3557600080fd5b90600052602060002090600402016000915090508060000154908060010154908060020154908060030160009054906101000a900473ffffffffffffffffffffffffffffffffffffffff16908060030160149054906101000a900460ff16905085565b60035481565b60606000805480602002602001604051908101604052809291908181526020018280548015610c2257602002820191906000526020600020905b8160009054906101000a900473ffffffffffffffffffffffffffffffffffffffff1673ffffffffffffffffffffffffffffffffffffffff1681526020019060010190808311610bd8575b5050505050905090565b60008181548110610c3c57600080fd5b906000526020600020016000915054906101000a900473ffffffffffffffffffffffffffffffffffffffff1681565b600080600260009054906101000a900473ffffffffffffffffffffffffffffffffffffffff1673ffffffffffffffffffffffffffffffffffffffff163373ffffffffffffffffffffffffffffffffffffffff1614610cc857600080fd5b6000808054905011610d0f576040517f08c379a0000000000000000000000000000000000000000000000000000000008152600401610d06906118ca565b60405180910390fd5b60008080549050610d1e610aef565b610d289190611cf8565b9050610d69816040518060400160405280600581526020017f696e64657800000000000000000000000000000000000000000000000000000081525061109a565b6000808281548110610da4577f4e487b7100000000000000000000000000000000000000000000000000000000600052603260045260246000fd5b9060005260206000200160009054906101000a900473ffffffffffffffffffffffffffffffffffffffff169050600060646055600354610de49190611b84565b610dee9190611b53565b90506000600580549050905060006040518060a0016040528083815260200160008054905081526020018481526020018573ffffffffffffffffffffffffffffffffffffffff168152602001600015158152509050600581908060018154018082558091505060019003906000526020600020906004020160009091909190915060008201518160000155602082015181600101556040820151816002015560608201518160030160006101000a81548173ffffffffffffffffffffffffffffffffffffffff021916908373ffffffffffffffffffffffffffffffffffffffff16021790555060808201518160030160146101000a81548160ff021916908315150217905550505060005b600080549050811015610fc157600060016000808481548110610f45577f4e487b7100000000000000000000000000000000000000000000000000000000600052603260045260246000fd5b9060005260206000200160009054906101000a900473ffffffffffffffffffffffffffffffffffffffff1673ffffffffffffffffffffffffffffffffffffffff1673ffffffffffffffffffffffffffffffffffffffff168152602001908152602001600020819055508080610fb990611ca5565b915050610ef9565b506000600381905550600067ffffffffffffffff81111561100b577f4e487b7100000000000000000000000000000000000000000000000000000000600052604160045260246000fd5b6040519080825280602002602001820160405280156110395781602001602082028036833780820191505090505b506000908051906020019061104f92919061115f565b507f66d1cdf1def50940a8dd987057699465da70289d3115fc59f66a1b4fddd48f8c84848460405161108393929190611871565b60405180910390a183839650965050505050509091565b61113282826040516024016110b0929190611985565b6040516020818303038152906040527f0fa3f345000000000000000000000000000000000000000000000000000000007bffffffffffffffffffffffffffffffffffffffffffffffffffffffff19166020820180517bffffffffffffffffffffffffffffffffffffffffffffffffffffffff8381831617835250505050611136565b5050565b60008151905060006a636f6e736f6c652e6c6f679050602083016000808483855afa5050505050565b8280548282559060005260206000209081019282156111d8579160200282015b828111156111d75782518260006101000a81548173ffffffffffffffffffffffffffffffffffffffff021916908373ffffffffffffffffffffffffffffffffffffffff1602179055509160200191906001019061117f565b5b5090506111e591906111e9565b5090565b5b808211156112025760008160009055506001016111ea565b5090565b60008135905061121581611db8565b92915050565b60008151905061122a81611db8565b92915050565b60008135905061123f81611dcf565b92915050565b60008151905061125481611de6565b92915050565b60008083601f84011261126c57600080fd5b8235905067ffffffffffffffff81111561128557600080fd5b60208301915083600182028301111561129d57600080fd5b9250929050565b6000813590506112b381611dfd565b92915050565b6000602082840312156112cb57600080fd5b60006112d98482850161121b565b91505092915050565b600080604083850312156112f557600080fd5b600061130385828601611230565b9250506020611314858286016112a4565b9150509250929050565b6000806040838503121561133157600080fd5b600061133f85828601611206565b9250506020611350858286016112a4565b9150509250929050565b60008060008060006080868803121561137257600080fd5b600061138088828901611206565b9550506020611391888289016112a4565b94505060406113a2888289016112a4565b935050606086013567ffffffffffffffff8111156113bf57600080fd5b6113cb8882890161125a565b92509250509295509295909350565b6000602082840312156113ec57600080fd5b60006113fa84828501611245565b91505092915050565b60006020828403121561141557600080fd5b6000611423848285016112a4565b91505092915050565b6000611438838361145c565b60208301905092915050565b6000611450838361147a565b60208301905092915050565b61146581611bfe565b82525050565b61147481611bfe565b82525050565b61148381611bfe565b82525050565b600061149482611a79565b61149e8185611abf565b93506114a983611a54565b8060005b838110156114da5781516114c1888261142c565b97506114cc83611aa5565b9250506001810190506114ad565b5085935050505092915050565b60006114f282611a84565b6114fc8185611ad0565b935061150783611a64565b8060005b8381101561153f5761151c82611d87565b6115268882611444565b975061153183611ab2565b92505060018101905061150b565b5085935050505092915050565b61155581611c22565b82525050565b600061156682611a8f565b6115708185611adb565b9350611580818560208601611c58565b61158981611d9a565b840191505092915050565b600061159f82611a9a565b6115a98185611aec565b93506115b9818560208601611c58565b6115c281611d9a565b840191505092915050565b60006115da602183611aec565b91507f6e6f206f6e6520686173206a6f696e656420746865206c6f747465727920796560008301527f74000000000000000000000000000000000000000000000000000000000000006020830152604082019050919050565b6000611640602f83611aec565b91507f6561636820656e74727920636f737473202e303038362065746865722e20777260008301527f6f6e6720616d6f756e742073656e7400000000000000000000000000000000006020830152604082019050919050565b60006116a6601b83611aec565b91507f63616c6c6572206973206e6f74207061697220636f6e747261637400000000006000830152602082019050919050565b60006116e6600583611aec565b91507f21706169720000000000000000000000000000000000000000000000000000006000830152602082019050919050565b6000611726604683611aec565b91507f7468697320616464726573732068617320616c7265616479207265616368656460008301527f206d6178696d756d20656e747269657320666f722074686973206c6f7474657260208301527f79202835302900000000000000000000000000000000000000000000000000006040830152606082019050919050565b6117ae81611c4e565b82525050565b6117c56117c082611c4e565b611cee565b82525050565b60006117d782866117b4565b6020820191506117e782856117b4565b6020820191506117f782846114e7565b9150819050949350505050565b6000602082019050611819600083018461146b565b92915050565b6000604082019050611834600083018561146b565b611841602083018461146b565b9392505050565b600060408201905061185d600083018561146b565b61186a60208301846117a5565b9392505050565b6000606082019050611886600083018661146b565b61189360208301856117a5565b6118a060408301846117a5565b949350505050565b600060208201905081810360008301526118c28184611489565b905092915050565b600060208201905081810360008301526118e3816115cd565b9050919050565b6000602082019050818103600083015261190381611633565b9050919050565b6000602082019050818103600083015261192381611699565b9050919050565b60006020820190508181036000830152611943816116d9565b9050919050565b6000602082019050818103600083015261196381611719565b9050919050565b600060208201905061197f60008301846117a5565b92915050565b600060408201905061199a60008301856117a5565b81810360208301526119ac8184611594565b90509392505050565b60006080820190506119ca60008301876117a5565b6119d760208301866117a5565b6119e4604083018561146b565b81810360608301526119f6818461155b565b905095945050505050565b600060a082019050611a1660008301886117a5565b611a2360208301876117a5565b611a3060408301866117a5565b611a3d606083018561146b565b611a4a608083018461154c565b9695505050505050565b6000819050602082019050919050565b60008190508160005260206000209050919050565b600081519050919050565b600081549050919050565b600081519050919050565b600081519050919050565b6000602082019050919050565b6000600182019050919050565b600082825260208201905092915050565b600081905092915050565b600082825260208201905092915050565b600082825260208201905092915050565b6000611b0882611c4e565b9150611b1383611c4e565b9250827fffffffffffffffffffffffffffffffffffffffffffffffffffffffffffffffff03821115611b4857611b47611d29565b5b828201905092915050565b6000611b5e82611c4e565b9150611b6983611c4e565b925082611b7957611b78611d58565b5b828204905092915050565b6000611b8f82611c4e565b9150611b9a83611c4e565b9250817fffffffffffffffffffffffffffffffffffffffffffffffffffffffffffffffff0483118215151615611bd357611bd2611d29565b5b828202905092915050565b600073ffffffffffffffffffffffffffffffffffffffff82169050919050565b6000611c0982611c2e565b9050919050565b6000611c1b82611c2e565b9050919050565b60008115159050919050565b600073ffffffffffffffffffffffffffffffffffffffff82169050919050565b6000819050919050565b60005b83811015611c76578082015181840152602081019050611c5b565b83811115611c85576000848401525b50505050565b6000611c9e611c9983611dab565b611bde565b9050919050565b6000611cb082611c4e565b91507fffffffffffffffffffffffffffffffffffffffffffffffffffffffffffffffff821415611ce357611ce2611d29565b5b600182019050919050565b6000819050919050565b6000611d0382611c4e565b9150611d0e83611c4e565b925082611d1e57611d1d611d58565b5b828206905092915050565b7f4e487b7100000000000000000000000000000000000000000000000000000000600052601160045260246000fd5b7f4e487b7100000000000000000000000000000000000000000000000000000000600052601260045260246000fd5b6000611d938254611c8b565b9050919050565b6000601f19601f8301169050919050565b60008160001c9050919050565b611dc181611bfe565b8114611dcc57600080fd5b50565b611dd881611c10565b8114611de357600080fd5b50565b611def81611c22565b8114611dfa57600080fd5b50565b611e0681611c4e565b8114611e1157600080fd5b5056fea26469706673582212205d7a7dc7fb2f6dce4a17fdbe15493c03407aa9a3436ca1cf1b2adf2d01c730cb64736f6c63430008000033",
  "linkReferences": {},
  "deployedLinkReferences": {}
}