{
  "_format": "hh-sol-artifact-1",
  "contractName": "FlashLottery",
  "sourceName": "contracts/FlashLottery.sol",
  "abi": [
    {
      "inputs": [
        {
          "internalType": "address",
          "name": "vrfCoordinator",
          "type": "address"
        },
        {
          "internalType": "address",
          "name": "link",
          "type": "address"
        },
        {
          "internalType": "bytes32",
          "name": "_keyhash",
          "type": "bytes32"
        },
        {
          "internalType": "uint256",
          "name": "_fee",
          "type": "uint256"
        }
      ],
      "stateMutability": "nonpayable",
      "type": "constructor"
    },
    {
      "anonymous": false,
      "inputs": [
        {
          "indexed": false,
          "internalType": "address",
          "name": "winner",
          "type": "address"
        },
        {
          "indexed": false,
          "internalType": "uint256",
          "name": "amount",
          "type": "uint256"
        },
        {
          "indexed": false,
          "internalType": "uint256",
          "name": "lotteryNumber",
          "type": "uint256"
        }
      ],
      "name": "LotteryComplete",
      "type": "event"
    },
    {
      "anonymous": false,
      "inputs": [
        {
          "indexed": false,
          "internalType": "bytes32",
          "name": "requestId",
          "type": "bytes32"
        },
        {
          "indexed": false,
          "internalType": "uint256",
          "name": "lotteryNumber",
          "type": "uint256"
        }
      ],
      "name": "RandomnessRequested",
      "type": "event"
    },
    {
      "anonymous": false,
      "inputs": [
        {
          "indexed": false,
          "internalType": "address",
          "name": "player",
          "type": "address"
        },
        {
          "indexed": false,
          "internalType": "uint256",
          "name": "numberOfEntries",
          "type": "uint256"
        }
      ],
      "name": "playerJoined",
      "type": "event"
    },
    {
      "inputs": [],
      "name": "entries",
      "outputs": [
        {
          "internalType": "uint256",
          "name": "",
          "type": "uint256"
        }
      ],
      "stateMutability": "view",
      "type": "function"
    },
    {
      "inputs": [],
      "name": "getLotteryHistory",
      "outputs": [
        {
          "components": [
            {
              "internalType": "uint256",
              "name": "lotteryNumber",
              "type": "uint256"
            },
            {
              "internalType": "uint256",
              "name": "numberOfPlayers",
              "type": "uint256"
            },
            {
              "internalType": "uint256",
              "name": "totalValueWon",
              "type": "uint256"
            },
            {
              "internalType": "address",
              "name": "winner",
              "type": "address"
            }
          ],
          "internalType": "struct FlashLottery.Lottery[]",
          "name": "",
          "type": "tuple[]"
        }
      ],
      "stateMutability": "view",
      "type": "function"
    },
    {
      "inputs": [],
      "name": "getPlayerPool",
      "outputs": [
        {
          "internalType": "address[]",
          "name": "",
          "type": "address[]"
        }
      ],
      "stateMutability": "view",
      "type": "function"
    },
    {
      "inputs": [
        {
          "internalType": "uint256",
          "name": "numberOfEntries",
          "type": "uint256"
        }
      ],
      "name": "joinPool",
      "outputs": [],
      "stateMutability": "payable",
      "type": "function"
    },
    {
      "inputs": [
        {
          "internalType": "uint256",
          "name": "",
          "type": "uint256"
        }
      ],
      "name": "lotteryHistory",
      "outputs": [
        {
          "internalType": "uint256",
          "name": "lotteryNumber",
          "type": "uint256"
        },
        {
          "internalType": "uint256",
          "name": "numberOfPlayers",
          "type": "uint256"
        },
        {
          "internalType": "uint256",
          "name": "totalValueWon",
          "type": "uint256"
        },
        {
          "internalType": "address",
          "name": "winner",
          "type": "address"
        }
      ],
      "stateMutability": "view",
      "type": "function"
    },
    {
      "inputs": [],
      "name": "notRandomGenerator",
      "outputs": [
        {
          "internalType": "uint256",
          "name": "",
          "type": "uint256"
        }
      ],
      "stateMutability": "view",
      "type": "function"
    },
    {
      "inputs": [
        {
          "internalType": "uint256",
          "name": "",
          "type": "uint256"
        }
      ],
      "name": "playerPool",
      "outputs": [
        {
          "internalType": "address",
          "name": "",
          "type": "address"
        }
      ],
      "stateMutability": "view",
      "type": "function"
    },
    {
      "inputs": [],
      "name": "prizePool",
      "outputs": [
        {
          "internalType": "uint256",
          "name": "",
          "type": "uint256"
        }
      ],
      "stateMutability": "view",
      "type": "function"
    },
    {
      "inputs": [],
      "name": "processLottery",
      "outputs": [],
      "stateMutability": "nonpayable",
      "type": "function"
    },
    {
      "inputs": [],
      "name": "processLotteryExternal",
      "outputs": [],
      "stateMutability": "nonpayable",
      "type": "function"
    },
    {
      "inputs": [],
      "name": "randomNumber",
      "outputs": [
        {
          "internalType": "uint256",
          "name": "",
          "type": "uint256"
        }
      ],
      "stateMutability": "view",
      "type": "function"
    },
    {
      "inputs": [
        {
          "internalType": "bytes32",
          "name": "requestId",
          "type": "bytes32"
        },
        {
          "internalType": "uint256",
          "name": "randomness",
          "type": "uint256"
        }
      ],
      "name": "rawFulfillRandomness",
      "outputs": [],
      "stateMutability": "nonpayable",
      "type": "function"
    }
  ],
  "bytecode": "0x60c06040523480156200001157600080fd5b50604051620024e7380380620024e78339818101604052810190620000379190620001dc565b83838173ffffffffffffffffffffffffffffffffffffffff1660a08173ffffffffffffffffffffffffffffffffffffffff16815250508073ffffffffffffffffffffffffffffffffffffffff1660808173ffffffffffffffffffffffffffffffffffffffff16815250505050816007819055508060088190555033600460006101000a81548173ffffffffffffffffffffffffffffffffffffffff021916908373ffffffffffffffffffffffffffffffffffffffff160217905550505050506200024e565b600080fd5b600073ffffffffffffffffffffffffffffffffffffffff82169050919050565b60006200012e8262000101565b9050919050565b620001408162000121565b81146200014c57600080fd5b50565b600081519050620001608162000135565b92915050565b6000819050919050565b6200017b8162000166565b81146200018757600080fd5b50565b6000815190506200019b8162000170565b92915050565b6000819050919050565b620001b681620001a1565b8114620001c257600080fd5b50565b600081519050620001d681620001ab565b92915050565b60008060008060808587031215620001f957620001f8620000fc565b5b600062000209878288016200014f565b94505060206200021c878288016200014f565b93505060406200022f878288016200018a565b92505060606200024287828801620001c5565b91505092959194509250565b60805160a05161225e6200028960003960008181610a23015261107a01526000818161073f01528181610829015261103e015261225e6000f3fe6080604052600436106100a75760003560e01c80637eb76954116100645780637eb76954146101b45780637f63fd3b146101cb57806394985ddd146101f6578063ccbac9f51461021f578063e0ad55021461024a578063fbd48e1514610287576100a7565b80630fc99376146100ac5780633149c427146100d757806334e7a19f1461010257806354b46aeb1461011e5780636d6fe23014610149578063719ce73e14610189575b600080fd5b3480156100b857600080fd5b506100c161029e565b6040516100ce91906113e9565b60405180910390f35b3480156100e357600080fd5b506100ec6102a4565b6040516100f99190611558565b60405180910390f35b61011c600480360381019061011791906115ab565b610377565b005b34801561012a57600080fd5b506101336105d0565b60405161014091906113e9565b60405180910390f35b34801561015557600080fd5b50610170600480360381019061016b91906115ab565b610606565b60405161018094939291906115e7565b60405180910390f35b34801561019557600080fd5b5061019e610666565b6040516101ab91906113e9565b60405180910390f35b3480156101c057600080fd5b506101c961066c565b005b3480156101d757600080fd5b506101e0610993565b6040516101ed91906116db565b60405180910390f35b34801561020257600080fd5b5061021d60048036038101906102189190611733565b610a21565b005b34801561022b57600080fd5b50610234610abd565b60405161024191906113e9565b60405180910390f35b34801561025657600080fd5b50610271600480360381019061026c91906115ab565b610ac3565b60405161027e9190611773565b60405180910390f35b34801561029357600080fd5b5061029c610b02565b005b60035481565b60606009805480602002602001604051908101604052809291908181526020016000905b8282101561036e57838290600052602060002090600402016040518060800160405290816000820154815260200160018201548152602001600282015481526020016003820160009054906101000a900473ffffffffffffffffffffffffffffffffffffffff1673ffffffffffffffffffffffffffffffffffffffff1673ffffffffffffffffffffffffffffffffffffffff1681525050815260200190600101906102c8565b50505050905090565b80661e8da78911800061038a91906117bd565b34146103cb576040517f08c379a00000000000000000000000000000000000000000000000000000000081526004016103c29061189a565b60405180910390fd5b6032600260003373ffffffffffffffffffffffffffffffffffffffff1673ffffffffffffffffffffffffffffffffffffffff168152602001908152602001600020541061044d576040517f08c379a000000000000000000000000000000000000000000000000000000000815260040161044490611952565b60405180910390fd5b6000600260003373ffffffffffffffffffffffffffffffffffffffff1673ffffffffffffffffffffffffffffffffffffffff1681526020019081526020016000205414156104f9576001339080600181540180825580915050600190039060005260206000200160009091909190916101000a81548173ffffffffffffffffffffffffffffffffffffffff021916908373ffffffffffffffffffffffffffffffffffffffff1602179055505b806003600082825461050b9190611972565b925050819055506001600260003373ffffffffffffffffffffffffffffffffffffffff1673ffffffffffffffffffffffffffffffffffffffff16815260200190815260200160002060008282546105629190611972565b9250508190555080661e8da78911800061057c91906117bd565b6005600082825461058d9190611972565b925050819055507f77a961e0f0c9bf8d1d588961a479403823620f21f40d71f90fc913861aa0a49233826040516105c59291906119c8565b60405180910390a150565b6000444260016040516020016105e893929190611b30565b6040516020818303038152906040528051906020012060001c905090565b6009818154811061061657600080fd5b90600052602060002090600402016000915090508060000154908060010154908060020154908060030160009054906101000a900473ffffffffffffffffffffffffffffffffffffffff16905084565b60055481565b600460009054906101000a900473ffffffffffffffffffffffffffffffffffffffff1673ffffffffffffffffffffffffffffffffffffffff163373ffffffffffffffffffffffffffffffffffffffff16146106c657600080fd5b6107046040518060400160405280601a81526020017f4c6f7474657279206265696e672070726f6365737365642e2e2e000000000000815250610f05565b6107dc6040518060400160405280601081526020017f4c696e6b2042616c616e63652069733a000000000000000000000000000000008152507f000000000000000000000000000000000000000000000000000000000000000073ffffffffffffffffffffffffffffffffffffffff166370a08231306040518263ffffffff1660e01b81526004016107969190611773565b602060405180830381865afa1580156107b3573d6000803e3d6000fd5b505050506040513d601f19601f820116820180604052508101906107d79190611b7e565b610f9e565b600060018054905011610824576040517f08c379a000000000000000000000000000000000000000000000000000000000815260040161081b90611c1d565b60405180910390fd5b6008547f000000000000000000000000000000000000000000000000000000000000000073ffffffffffffffffffffffffffffffffffffffff166370a08231306040518263ffffffff1660e01b81526004016108809190611773565b602060405180830381865afa15801561089d573d6000803e3d6000fd5b505050506040513d601f19601f820116820180604052508101906108c19190611b7e565b1015610902576040517f08c379a00000000000000000000000000000000000000000000000000000000081526004016108f990611c89565b60405180910390fd5b600061091260075460085461103a565b90506109526040518060400160405280601481526020017f52616e646f6d6e65737320526571756573746564000000000000000000000000815250610f05565b7f49cdaa45e000eb9a419ae3b028f7f7bec2179153ebe33293f31286642842132681600980549050604051610988929190611cb8565b60405180910390a150565b60606001805480602002602001604051908101604052809291908181526020018280548015610a1757602002820191906000526020600020905b8160009054906101000a900473ffffffffffffffffffffffffffffffffffffffff1673ffffffffffffffffffffffffffffffffffffffff16815260200190600101908083116109cd575b5050505050905090565b7f000000000000000000000000000000000000000000000000000000000000000073ffffffffffffffffffffffffffffffffffffffff163373ffffffffffffffffffffffffffffffffffffffff1614610aaf576040517f08c379a0000000000000000000000000000000000000000000000000000000008152600401610aa690611d2d565b60405180910390fd5b610ab9828261118a565b5050565b60065481565b60018181548110610ad357600080fd5b906000526020600020016000915054906101000a900473ffffffffffffffffffffffffffffffffffffffff1681565b600460009054906101000a900473ffffffffffffffffffffffffffffffffffffffff1673ffffffffffffffffffffffffffffffffffffffff163373ffffffffffffffffffffffffffffffffffffffff1614610b5c57600080fd5b600060018054905011610ba4576040517f08c379a0000000000000000000000000000000000000000000000000000000008152600401610b9b90611c1d565b60405180910390fd5b6000600180549050610bb46105d0565b610bbe9190611d7c565b9050600060018281548110610bd657610bd5611dad565b5b9060005260206000200160009054906101000a900473ffffffffffffffffffffffffffffffffffffffff169050600060646055600554610c1691906117bd565b610c209190611ddc565b9050600060098054905090506000604051806080016040528083815260200160018054905081526020018481526020018573ffffffffffffffffffffffffffffffffffffffff168152509050600981908060018154018082558091505060019003906000526020600020906004020160009091909190915060008201518160000155602082015181600101556040820151816002015560608201518160030160006101000a81548173ffffffffffffffffffffffffffffffffffffffff021916908373ffffffffffffffffffffffffffffffffffffffff160217905550505060008473ffffffffffffffffffffffffffffffffffffffff1684604051610d2590611e3e565b60006040518083038185875af1925050503d8060008114610d62576040519150601f19603f3d011682016040523d82523d6000602084013e610d67565b606091505b5050905080610dab576040517f08c379a0000000000000000000000000000000000000000000000000000000008152600401610da290611ec5565b60405180910390fd5b60005b600180549050811015610e515760006002600060018481548110610dd557610dd4611dad565b5b9060005260206000200160009054906101000a900473ffffffffffffffffffffffffffffffffffffffff1673ffffffffffffffffffffffffffffffffffffffff1673ffffffffffffffffffffffffffffffffffffffff168152602001908152602001600020819055508080610e4990611ee5565b915050610dae565b506000600581905550600067ffffffffffffffff811115610e7557610e74611f2e565b5b604051908082528060200260200182016040528015610ea35781602001602082028036833780820191505090505b5060019080519060200190610eb9929190611329565b5060006003819055507fa005899a18824fb8a813e5acdfaa1ef0b5f0a48dc4ff3d68ad9204abe6f8b467858585604051610ef593929190611f5d565b60405180910390a1505050505050565b610f9b81604051602401610f19919061201c565b6040516020818303038152906040527f41304fac000000000000000000000000000000000000000000000000000000007bffffffffffffffffffffffffffffffffffffffffffffffffffffffff19166020820180517bffffffffffffffffffffffffffffffffffffffffffffffffffffffff83818316178352505050506111f5565b50565b6110368282604051602401610fb492919061203e565b6040516020818303038152906040527f9710a9d0000000000000000000000000000000000000000000000000000000007bffffffffffffffffffffffffffffffffffffffffffffffffffffffff19166020820180517bffffffffffffffffffffffffffffffffffffffffffffffffffffffff83818316178352505050506111f5565b5050565b60007f000000000000000000000000000000000000000000000000000000000000000073ffffffffffffffffffffffffffffffffffffffff16634000aea07f0000000000000000000000000000000000000000000000000000000000000000848660006040516020016110ae929190611cb8565b6040516020818303038152906040526040518463ffffffff1660e01b81526004016110db939291906120c3565b6020604051808303816000875af11580156110fa573d6000803e3d6000fd5b505050506040513d601f19601f8201168201806040525081019061111e9190612139565b506000611140846000306000808981526020019081526020016000205461121e565b90506001600080868152602001908152602001600020546111619190611972565b60008086815260200190815260200160002081905550611181848261125a565b91505092915050565b6111c9816040518060400160405280601681526020017f72616e646f6d6e65737320696e20636f6e74726163740000000000000000000081525061128d565b600060098054905090506000600180549050836111e69190611d7c565b90508260068190555050505050565b60008151905060006a636f6e736f6c652e6c6f679050602083016000808483855afa5050505050565b6000848484846040516020016112379493929190612166565b6040516020818303038152906040528051906020012060001c9050949350505050565b6000828260405160200161126f9291906121cc565b60405160208183030381529060405280519060200120905092915050565b61132582826040516024016112a39291906121f8565b6040516020818303038152906040527f0fa3f345000000000000000000000000000000000000000000000000000000007bffffffffffffffffffffffffffffffffffffffffffffffffffffffff19166020820180517bffffffffffffffffffffffffffffffffffffffffffffffffffffffff83818316178352505050506111f5565b5050565b8280548282559060005260206000209081019282156113a2579160200282015b828111156113a15782518260006101000a81548173ffffffffffffffffffffffffffffffffffffffff021916908373ffffffffffffffffffffffffffffffffffffffff16021790555091602001919060010190611349565b5b5090506113af91906113b3565b5090565b5b808211156113cc5760008160009055506001016113b4565b5090565b6000819050919050565b6113e3816113d0565b82525050565b60006020820190506113fe60008301846113da565b92915050565b600081519050919050565b600082825260208201905092915050565b6000819050602082019050919050565b611439816113d0565b82525050565b600073ffffffffffffffffffffffffffffffffffffffff82169050919050565b600061146a8261143f565b9050919050565b61147a8161145f565b82525050565b6080820160008201516114966000850182611430565b5060208201516114a96020850182611430565b5060408201516114bc6040850182611430565b5060608201516114cf6060850182611471565b50505050565b60006114e18383611480565b60808301905092915050565b6000602082019050919050565b600061150582611404565b61150f818561140f565b935061151a83611420565b8060005b8381101561154b57815161153288826114d5565b975061153d836114ed565b92505060018101905061151e565b5085935050505092915050565b6000602082019050818103600083015261157281846114fa565b905092915050565b600080fd5b611588816113d0565b811461159357600080fd5b50565b6000813590506115a58161157f565b92915050565b6000602082840312156115c1576115c061157a565b5b60006115cf84828501611596565b91505092915050565b6115e18161145f565b82525050565b60006080820190506115fc60008301876113da565b61160960208301866113da565b61161660408301856113da565b61162360608301846115d8565b95945050505050565b600081519050919050565b600082825260208201905092915050565b6000819050602082019050919050565b60006116648383611471565b60208301905092915050565b6000602082019050919050565b60006116888261162c565b6116928185611637565b935061169d83611648565b8060005b838110156116ce5781516116b58882611658565b97506116c083611670565b9250506001810190506116a1565b5085935050505092915050565b600060208201905081810360008301526116f5818461167d565b905092915050565b6000819050919050565b611710816116fd565b811461171b57600080fd5b50565b60008135905061172d81611707565b92915050565b6000806040838503121561174a5761174961157a565b5b60006117588582860161171e565b925050602061176985828601611596565b9150509250929050565b600060208201905061178860008301846115d8565b92915050565b7f4e487b7100000000000000000000000000000000000000000000000000000000600052601160045260246000fd5b60006117c8826113d0565b91506117d3836113d0565b9250817fffffffffffffffffffffffffffffffffffffffffffffffffffffffffffffffff048311821515161561180c5761180b61178e565b5b828202905092915050565b600082825260208201905092915050565b7f6561636820656e74727920636f737473202e303038362065746865722e20777260008201527f6f6e6720616d6f756e742073656e740000000000000000000000000000000000602082015250565b6000611884602f83611817565b915061188f82611828565b604082019050919050565b600060208201905081810360008301526118b381611877565b9050919050565b7f7468697320616464726573732068617320616c7265616479207265616368656460008201527f206d6178696d756d20656e747269657320666f722074686973206c6f7474657260208201527f7920283530290000000000000000000000000000000000000000000000000000604082015250565b600061193c604683611817565b9150611947826118ba565b606082019050919050565b6000602082019050818103600083015261196b8161192f565b9050919050565b600061197d826113d0565b9150611988836113d0565b9250827fffffffffffffffffffffffffffffffffffffffffffffffffffffffffffffffff038211156119bd576119bc61178e565b5b828201905092915050565b60006040820190506119dd60008301856115d8565b6119ea60208301846113da565b9392505050565b6000819050919050565b611a0c611a07826113d0565b6119f1565b82525050565b600081549050919050565b600081905092915050565b60008190508160005260206000209050919050565b611a468161145f565b82525050565b6000611a588383611a3d565b60208301905092915050565b60008160001c9050919050565b600073ffffffffffffffffffffffffffffffffffffffff82169050919050565b6000611aa4611a9f83611a64565b611a71565b9050919050565b6000611ab78254611a91565b9050919050565b6000600182019050919050565b6000611ad682611a12565b611ae08185611a1d565b9350611aeb83611a28565b8060005b83811015611b2357611b0082611aab565b611b0a8882611a4c565b9750611b1583611abe565b925050600181019050611aef565b5085935050505092915050565b6000611b3c82866119fb565b602082019150611b4c82856119fb565b602082019150611b5c8284611acb565b9150819050949350505050565b600081519050611b788161157f565b92915050565b600060208284031215611b9457611b9361157a565b5b6000611ba284828501611b69565b91505092915050565b7f6e6f206f6e6520686173206a6f696e656420746865206c6f747465727920796560008201527f7400000000000000000000000000000000000000000000000000000000000000602082015250565b6000611c07602183611817565b9150611c1282611bab565b604082019050919050565b60006020820190508181036000830152611c3681611bfa565b9050919050565b7f4e6f7420656e6f756768204c494e4b0000000000000000000000000000000000600082015250565b6000611c73600f83611817565b9150611c7e82611c3d565b602082019050919050565b60006020820190508181036000830152611ca281611c66565b9050919050565b611cb2816116fd565b82525050565b6000604082019050611ccd6000830185611ca9565b611cda60208301846113da565b9392505050565b7f4f6e6c7920565246436f6f7264696e61746f722063616e2066756c66696c6c00600082015250565b6000611d17601f83611817565b9150611d2282611ce1565b602082019050919050565b60006020820190508181036000830152611d4681611d0a565b9050919050565b7f4e487b7100000000000000000000000000000000000000000000000000000000600052601260045260246000fd5b6000611d87826113d0565b9150611d92836113d0565b925082611da257611da1611d4d565b5b828206905092915050565b7f4e487b7100000000000000000000000000000000000000000000000000000000600052603260045260246000fd5b6000611de7826113d0565b9150611df2836113d0565b925082611e0257611e01611d4d565b5b828204905092915050565b600081905092915050565b50565b6000611e28600083611e0d565b9150611e3382611e18565b600082019050919050565b6000611e4982611e1b565b9150819050919050565b7f7472616e73666572206f662077696e6e696e672066756e6473206e6f7420737560008201527f636365737366756c000000000000000000000000000000000000000000000000602082015250565b6000611eaf602883611817565b9150611eba82611e53565b604082019050919050565b60006020820190508181036000830152611ede81611ea2565b9050919050565b6000611ef0826113d0565b91507fffffffffffffffffffffffffffffffffffffffffffffffffffffffffffffffff821415611f2357611f2261178e565b5b600182019050919050565b7f4e487b7100000000000000000000000000000000000000000000000000000000600052604160045260246000fd5b6000606082019050611f7260008301866115d8565b611f7f60208301856113da565b611f8c60408301846113da565b949350505050565b600081519050919050565b60005b83811015611fbd578082015181840152602081019050611fa2565b83811115611fcc576000848401525b50505050565b6000601f19601f8301169050919050565b6000611fee82611f94565b611ff88185611817565b9350612008818560208601611f9f565b61201181611fd2565b840191505092915050565b600060208201905081810360008301526120368184611fe3565b905092915050565b600060408201905081810360008301526120588185611fe3565b905061206760208301846113da565b9392505050565b600081519050919050565b600082825260208201905092915050565b60006120958261206e565b61209f8185612079565b93506120af818560208601611f9f565b6120b881611fd2565b840191505092915050565b60006060820190506120d860008301866115d8565b6120e560208301856113da565b81810360408301526120f7818461208a565b9050949350505050565b60008115159050919050565b61211681612101565b811461212157600080fd5b50565b6000815190506121338161210d565b92915050565b60006020828403121561214f5761214e61157a565b5b600061215d84828501612124565b91505092915050565b600060808201905061217b6000830187611ca9565b61218860208301866113da565b61219560408301856115d8565b6121a260608301846113da565b95945050505050565b6000819050919050565b6121c66121c1826116fd565b6121ab565b82525050565b60006121d882856121b5565b6020820191506121e882846119fb565b6020820191508190509392505050565b600060408201905061220d60008301856113da565b818103602083015261221f8184611fe3565b9050939250505056fea2646970667358221220cc3349956ce1c241068e5984b8f15ae1c6552d746498658126e5128ef842957c64736f6c634300080a0033",
  "linkReferences": {},
  "deployedLinkReferences": {}
}