{
  "_format": "hh-sol-artifact-1",
  "contractName": "FlashLottery",
  "sourceName": "contracts/FlashLottery.sol",
  "abi": [
    {
      "inputs": [
        {
          "internalType": "address",
          "name": "_factory",
          "type": "address"
        },
        {
          "internalType": "address",
          "name": "_sushiRouter",
          "type": "address"
        }
      ],
      "stateMutability": "nonpayable",
      "type": "constructor"
    },
    {
      "anonymous": false,
      "inputs": [
        {
          "indexed": false,
          "internalType": "address",
          "name": "winner",
          "type": "address"
        },
        {
          "indexed": false,
          "internalType": "uint256",
          "name": "amount",
          "type": "uint256"
        },
        {
          "indexed": false,
          "internalType": "uint256",
          "name": "lotteryNumber",
          "type": "uint256"
        }
      ],
      "name": "lotteryComplete",
      "type": "event"
    },
    {
      "anonymous": false,
      "inputs": [
        {
          "indexed": false,
          "internalType": "address",
          "name": "player",
          "type": "address"
        },
        {
          "indexed": false,
          "internalType": "uint256",
          "name": "numberOfEntries",
          "type": "uint256"
        }
      ],
      "name": "playerJoined",
      "type": "event"
    },
    {
      "inputs": [],
      "name": "factory",
      "outputs": [
        {
          "internalType": "address",
          "name": "",
          "type": "address"
        }
      ],
      "stateMutability": "view",
      "type": "function"
    },
    {
      "inputs": [
        {
          "internalType": "address",
          "name": "token0",
          "type": "address"
        },
        {
          "internalType": "address",
          "name": "token1",
          "type": "address"
        },
        {
          "internalType": "uint256",
          "name": "amount0",
          "type": "uint256"
        },
        {
          "internalType": "uint256",
          "name": "amount1",
          "type": "uint256"
        }
      ],
      "name": "flashSwapArb",
      "outputs": [],
      "stateMutability": "nonpayable",
      "type": "function"
    },
    {
      "inputs": [],
      "name": "getPlayerPool",
      "outputs": [
        {
          "internalType": "address[]",
          "name": "",
          "type": "address[]"
        }
      ],
      "stateMutability": "view",
      "type": "function"
    },
    {
      "inputs": [
        {
          "internalType": "uint256",
          "name": "numberOfEntries",
          "type": "uint256"
        }
      ],
      "name": "joinPool",
      "outputs": [],
      "stateMutability": "payable",
      "type": "function"
    },
    {
      "inputs": [
        {
          "internalType": "uint256",
          "name": "",
          "type": "uint256"
        }
      ],
      "name": "lotteryHistory",
      "outputs": [
        {
          "internalType": "uint256",
          "name": "lotteryNumber",
          "type": "uint256"
        },
        {
          "internalType": "uint256",
          "name": "numberOfPlayers",
          "type": "uint256"
        },
        {
          "internalType": "uint256",
          "name": "totalValueWon",
          "type": "uint256"
        },
        {
          "internalType": "address",
          "name": "winner",
          "type": "address"
        },
        {
          "internalType": "bool",
          "name": "flashDecision",
          "type": "bool"
        }
      ],
      "stateMutability": "view",
      "type": "function"
    },
    {
      "inputs": [],
      "name": "notRandomGenerator",
      "outputs": [
        {
          "internalType": "uint256",
          "name": "",
          "type": "uint256"
        }
      ],
      "stateMutability": "view",
      "type": "function"
    },
    {
      "inputs": [
        {
          "internalType": "uint256",
          "name": "",
          "type": "uint256"
        }
      ],
      "name": "playerPool",
      "outputs": [
        {
          "internalType": "address",
          "name": "",
          "type": "address"
        }
      ],
      "stateMutability": "view",
      "type": "function"
    },
    {
      "inputs": [],
      "name": "prizePool",
      "outputs": [
        {
          "internalType": "uint256",
          "name": "",
          "type": "uint256"
        }
      ],
      "stateMutability": "view",
      "type": "function"
    },
    {
      "inputs": [],
      "name": "processLottery",
      "outputs": [
        {
          "internalType": "address",
          "name": "",
          "type": "address"
        },
        {
          "internalType": "uint256",
          "name": "",
          "type": "uint256"
        }
      ],
      "stateMutability": "nonpayable",
      "type": "function"
    },
    {
      "inputs": [],
      "name": "sushiRouter",
      "outputs": [
        {
          "internalType": "contract IUniswapV2Router02",
          "name": "",
          "type": "address"
        }
      ],
      "stateMutability": "view",
      "type": "function"
    },
    {
      "inputs": [
        {
          "internalType": "address",
          "name": "_sender",
          "type": "address"
        },
        {
          "internalType": "uint256",
          "name": "_amount0",
          "type": "uint256"
        },
        {
          "internalType": "uint256",
          "name": "_amount1",
          "type": "uint256"
        },
        {
          "internalType": "bytes",
          "name": "_data",
          "type": "bytes"
        }
      ],
      "name": "uniswapV2Call",
      "outputs": [],
      "stateMutability": "nonpayable",
      "type": "function"
    }
  ],
  "bytecode": "0x608060405234801561001057600080fd5b50604051612de8380380612de88339818101604052604081101561003357600080fd5b810190808051906020019092919080519060200190929190505050816000806101000a81548173ffffffffffffffffffffffffffffffffffffffff021916908373ffffffffffffffffffffffffffffffffffffffff16021790555080600160006101000a81548173ffffffffffffffffffffffffffffffffffffffff021916908373ffffffffffffffffffffffffffffffffffffffff16021790555033600460006101000a81548173ffffffffffffffffffffffffffffffffffffffff021916908373ffffffffffffffffffffffffffffffffffffffff1602179055505050612cc7806101216000396000f3fe60806040526004361061009c5760003560e01c8063719ce73e11610064578063719ce73e146102a65780637f63fd3b146102d1578063b0da660f1461033d578063c45a0155146103c2578063e0ad550214610419578063fbd48e15146104945761009c565b806310d1e85c146100a157806334e7a19f1461015b57806354b46aeb146101895780636d13582c146101b45780636d6fe2301461020b575b600080fd5b3480156100ad57600080fd5b50610159600480360360808110156100c457600080fd5b81019080803573ffffffffffffffffffffffffffffffffffffffff16906020019092919080359060200190929190803590602001909291908035906020019064010000000081111561011557600080fd5b82018360208201111561012757600080fd5b8035906020019184600183028401116401000000008311171561014957600080fd5b90919293919293905050506104f2565b005b6101876004803603602081101561017157600080fd5b8101908080359060200190929190505050610ef2565b005b34801561019557600080fd5b5061019e61116c565b6040518082815260200191505060405180910390f35b3480156101c057600080fd5b506101c961120e565b604051808273ffffffffffffffffffffffffffffffffffffffff1673ffffffffffffffffffffffffffffffffffffffff16815260200191505060405180910390f35b34801561021757600080fd5b506102446004803603602081101561022e57600080fd5b8101908080359060200190929190505050611234565b604051808681526020018581526020018481526020018373ffffffffffffffffffffffffffffffffffffffff1673ffffffffffffffffffffffffffffffffffffffff168152602001821515151581526020019550505050505060405180910390f35b3480156102b257600080fd5b506102bb6112a4565b6040518082815260200191505060405180910390f35b3480156102dd57600080fd5b506102e66112aa565b6040518080602001828103825283818151815260200191508051906020019060200280838360005b8381101561032957808201518184015260208101905061030e565b505050509050019250505060405180910390f35b34801561034957600080fd5b506103c06004803603608081101561036057600080fd5b81019080803573ffffffffffffffffffffffffffffffffffffffff169060200190929190803573ffffffffffffffffffffffffffffffffffffffff1690602001909291908035906020019092919080359060200190929190505050611338565b005b3480156103ce57600080fd5b506103d761169c565b604051808273ffffffffffffffffffffffffffffffffffffffff1673ffffffffffffffffffffffffffffffffffffffff16815260200191505060405180910390f35b34801561042557600080fd5b506104526004803603602081101561043c57600080fd5b81019080803590602001909291905050506116c1565b604051808273ffffffffffffffffffffffffffffffffffffffff1673ffffffffffffffffffffffffffffffffffffffff16815260200191505060405180910390f35b3480156104a057600080fd5b506104a96116fd565b604051808373ffffffffffffffffffffffffffffffffffffffff1673ffffffffffffffffffffffffffffffffffffffff1681526020018281526020019250505060405180910390f35b6060600267ffffffffffffffff8111801561050c57600080fd5b5060405190808252806020026020018201604052801561053b5781602001602082028036833780820191505090505b509050600080861461054d578561054f565b845b905060003373ffffffffffffffffffffffffffffffffffffffff16630dfe16816040518163ffffffff1660e01b815260040160206040518083038186803b15801561059957600080fd5b505afa1580156105ad573d6000803e3d6000fd5b505050506040513d60208110156105c357600080fd5b8101908080519060200190929190505050905060003373ffffffffffffffffffffffffffffffffffffffff1663d21220a76040518163ffffffff1660e01b815260040160206040518083038186803b15801561061e57600080fd5b505afa158015610632573d6000803e3d6000fd5b505050506040513d602081101561064857600080fd5b810190808051906020019092919050505090506106876000809054906101000a900473ffffffffffffffffffffffffffffffffffffffff168383611af2565b73ffffffffffffffffffffffffffffffffffffffff163373ffffffffffffffffffffffffffffffffffffffff1614610727576040517f08c379a000000000000000000000000000000000000000000000000000000000815260040180806020018281038252601b8152602001807f63616c6c6572206973206e6f74207061697220636f6e7472616374000000000081525060200191505060405180910390fd5b600088146107355781610737565b805b8460008151811061074457fe5b602002602001019073ffffffffffffffffffffffffffffffffffffffff16908173ffffffffffffffffffffffffffffffffffffffff16815250506000881461078c578061078e565b815b8460018151811061079b57fe5b602002602001019073ffffffffffffffffffffffffffffffffffffffff16908173ffffffffffffffffffffffffffffffffffffffff168152505060008089146107e457826107e6565b815b90508073ffffffffffffffffffffffffffffffffffffffff1663095ea7b3600160009054906101000a900473ffffffffffffffffffffffffffffffffffffffff16866040518363ffffffff1660e01b8152600401808373ffffffffffffffffffffffffffffffffffffffff1673ffffffffffffffffffffffffffffffffffffffff16815260200182815260200192505050602060405180830381600087803b15801561089157600080fd5b505af11580156108a5573d6000803e3d6000fd5b505050506040513d60208110156108bb57600080fd5b81019080805190602001909291905050505061090c6040518060400160405280600981526020017f5f616d6f756e74303a00000000000000000000000000000000000000000000008152508a611c4d565b61094b6040518060400160405280600981526020017f5f616d6f756e74313a000000000000000000000000000000000000000000000081525089611c4d565b60006109796000809054906101000a900473ffffffffffffffffffffffffffffffffffffffff168688611d54565b60008151811061098557fe5b602002602001015190506109ce6040518060400160405280600c81526020017f416d6f756e74546f6b656e3a000000000000000000000000000000000000000081525086611c4d565b610a0d6040518060400160405280600f81526020017f416d6f756e7452657175697265643a000000000000000000000000000000000081525082611c4d565b610a606040518060400160405280600881526020017f506174685b305d3a00000000000000000000000000000000000000000000000081525087600081518110610a5357fe5b6020026020010151611fd1565b610ab36040518060400160405280600881526020017f506174685b315d3a00000000000000000000000000000000000000000000000081525087600181518110610aa657fe5b6020026020010151611fd1565b6000600160009054906101000a900473ffffffffffffffffffffffffffffffffffffffff1673ffffffffffffffffffffffffffffffffffffffff166338ed173987848a33640202fbf0006040518663ffffffff1660e01b815260040180868152602001858152602001806020018473ffffffffffffffffffffffffffffffffffffffff1673ffffffffffffffffffffffffffffffffffffffff168152602001838152602001828103825285818151815260200191508051906020019060200280838360005b83811015610b93578082015181840152602081019050610b78565b505050509050019650505050505050600060405180830381600087803b158015610bbc57600080fd5b505af1158015610bd0573d6000803e3d6000fd5b505050506040513d6000823e3d601f19601f820116820180604052506020811015610bfa57600080fd5b8101908080516040519392919084640100000000821115610c1a57600080fd5b83820191506020820185811115610c3057600080fd5b8251866020820283011164010000000082111715610c4d57600080fd5b8083526020830192505050908051906020019060200280838360005b83811015610c84578082015181840152602081019050610c69565b50505050905001604052505050600181518110610c9d57fe5b60200260200101519050610ce6816040518060400160405280600e81526020017f616d6f756e745265636569766564000000000000000000000000000000000000815250612104565b6000808c14610cf55784610cf7565b855b90508073ffffffffffffffffffffffffffffffffffffffff1663a9059cbb33856040518363ffffffff1660e01b8152600401808373ffffffffffffffffffffffffffffffffffffffff1673ffffffffffffffffffffffffffffffffffffffff16815260200182815260200192505050602060405180830381600087803b158015610d8057600080fd5b505af1158015610d94573d6000803e3d6000fd5b505050506040513d6020811015610daa57600080fd5b810190808051906020019092919050505050610dfd8383036040518060400160405280600681526020017f70726f6669740000000000000000000000000000000000000000000000000000815250612104565b8073ffffffffffffffffffffffffffffffffffffffff1663a9059cbb600460009054906101000a900473ffffffffffffffffffffffffffffffffffffffff1660016040518363ffffffff1660e01b8152600401808373ffffffffffffffffffffffffffffffffffffffff1673ffffffffffffffffffffffffffffffffffffffff16815260200182815260200192505050602060405180830381600087803b158015610ea757600080fd5b505af1158015610ebb573d6000803e3d6000fd5b505050506040513d6020811015610ed157600080fd5b81019080805190602001909291905050505050505050505050505050505050565b80661e8da789118000023414610f53576040517f08c379a000000000000000000000000000000000000000000000000000000000815260040180806020018281038252602f815260200180612bf5602f913960400191505060405180910390fd5b6032600360003373ffffffffffffffffffffffffffffffffffffffff1673ffffffffffffffffffffffffffffffffffffffff1681526020019081526020016000205410610feb576040517f08c379a0000000000000000000000000000000000000000000000000000000008152600401808060200182810382526046815260200180612c4c6046913960600191505060405180910390fd5b6000600360003373ffffffffffffffffffffffffffffffffffffffff1673ffffffffffffffffffffffffffffffffffffffff168152602001908152602001600020541415611097576002339080600181540180825580915050600190039060005260206000200160009091909190916101000a81548173ffffffffffffffffffffffffffffffffffffffff021916908373ffffffffffffffffffffffffffffffffffffffff1602179055505b6001600360003373ffffffffffffffffffffffffffffffffffffffff1673ffffffffffffffffffffffffffffffffffffffff1681526020019081526020016000206000828254019250508190555080661e8da789118000026005600082825401925050819055507f77a961e0f0c9bf8d1d588961a479403823620f21f40d71f90fc913861aa0a4923382604051808373ffffffffffffffffffffffffffffffffffffffff1673ffffffffffffffffffffffffffffffffffffffff1681526020018281526020019250505060405180910390a150565b6000444260026040516020018084815260200183815260200182805480156111e957602002820191906000526020600020905b8160009054906101000a900473ffffffffffffffffffffffffffffffffffffffff1673ffffffffffffffffffffffffffffffffffffffff168152602001906001019080831161119f575b505093505050506040516020818303038152906040528051906020012060001c905090565b600160009054906101000a900473ffffffffffffffffffffffffffffffffffffffff1681565b6006818154811061124157fe5b90600052602060002090600402016000915090508060000154908060010154908060020154908060030160009054906101000a900473ffffffffffffffffffffffffffffffffffffffff16908060030160149054906101000a900460ff16905085565b60055481565b6060600280548060200260200160405190810160405280929190818152602001828054801561132e57602002820191906000526020600020905b8160009054906101000a900473ffffffffffffffffffffffffffffffffffffffff1673ffffffffffffffffffffffffffffffffffffffff16815260200190600101908083116112e4575b5050505050905090565b60008060009054906101000a900473ffffffffffffffffffffffffffffffffffffffff1673ffffffffffffffffffffffffffffffffffffffff1663e6a4390586866040518363ffffffff1660e01b8152600401808373ffffffffffffffffffffffffffffffffffffffff1673ffffffffffffffffffffffffffffffffffffffff1681526020018273ffffffffffffffffffffffffffffffffffffffff1673ffffffffffffffffffffffffffffffffffffffff1681526020019250505060206040518083038186803b15801561140c57600080fd5b505afa158015611420573d6000803e3d6000fd5b505050506040513d602081101561143657600080fd5b81019080805190602001909291905050509050600073ffffffffffffffffffffffffffffffffffffffff168173ffffffffffffffffffffffffffffffffffffffff1614156114ec576040517f08c379a00000000000000000000000000000000000000000000000000000000081526004018080602001828103825260128152602001807f7061697220646f65736e2774206578697374000000000000000000000000000081525060200191505060405180910390fd5b606085848685604051602001808573ffffffffffffffffffffffffffffffffffffffff1673ffffffffffffffffffffffffffffffffffffffff1681526020018481526020018373ffffffffffffffffffffffffffffffffffffffff1673ffffffffffffffffffffffffffffffffffffffff16815260200182815260200194505050505060405160208183030381529060405290508173ffffffffffffffffffffffffffffffffffffffff1663022c0d9f858530856040518563ffffffff1660e01b8152600401808581526020018481526020018373ffffffffffffffffffffffffffffffffffffffff1673ffffffffffffffffffffffffffffffffffffffff16815260200180602001828103825283818151815260200191508051906020019080838360005b8381101561162d578082015181840152602081019050611612565b50505050905090810190601f16801561165a5780820380516001836020036101000a031916815260200191505b5095505050505050600060405180830381600087803b15801561167c57600080fd5b505af1158015611690573d6000803e3d6000fd5b50505050505050505050565b6000809054906101000a900473ffffffffffffffffffffffffffffffffffffffff1681565b600281815481106116ce57fe5b906000526020600020016000915054906101000a900473ffffffffffffffffffffffffffffffffffffffff1681565b600080600460009054906101000a900473ffffffffffffffffffffffffffffffffffffffff1673ffffffffffffffffffffffffffffffffffffffff163373ffffffffffffffffffffffffffffffffffffffff161461175a57600080fd5b6000600280549050116117b8576040517f08c379a0000000000000000000000000000000000000000000000000000000008152600401808060200182810382526021815260200180612bd46021913960400191505060405180910390fd5b60006002805490506117c861116c565b816117cf57fe5b069050611811816040518060400160405280600581526020017f696e646578000000000000000000000000000000000000000000000000000000815250612104565b60006002828154811061182057fe5b9060005260206000200160009054906101000a900473ffffffffffffffffffffffffffffffffffffffff169050600060646055600554028161185e57fe5b04905060006006805490509050611873612a6e565b6040518060a0016040528083815260200160028054905081526020018481526020018573ffffffffffffffffffffffffffffffffffffffff168152602001600015158152509050600681908060018154018082558091505060019003906000526020600020906004020160009091909190915060008201518160000155602082015181600101556040820151816002015560608201518160030160006101000a81548173ffffffffffffffffffffffffffffffffffffffff021916908373ffffffffffffffffffffffffffffffffffffffff16021790555060808201518160030160146101000a81548160ff021916908315150217905550505060008090505b600280549050811015611a09576000600360006002848154811061199357fe5b9060005260206000200160009054906101000a900473ffffffffffffffffffffffffffffffffffffffff1673ffffffffffffffffffffffffffffffffffffffff1673ffffffffffffffffffffffffffffffffffffffff168152602001908152602001600020819055508080600101915050611973565b506000600581905550600067ffffffffffffffff81118015611a2a57600080fd5b50604051908082528060200260200182016040528015611a595781602001602082028036833780820191505090505b5060029080519060200190611a6f929190612ab5565b507f66d1cdf1def50940a8dd987057699465da70289d3115fc59f66a1b4fddd48f8c848484604051808473ffffffffffffffffffffffffffffffffffffffff1673ffffffffffffffffffffffffffffffffffffffff168152602001838152602001828152602001935050505060405180910390a183839650965050505050509091565b6000806000611b01858561220b565b91509150858282604051602001808373ffffffffffffffffffffffffffffffffffffffff1673ffffffffffffffffffffffffffffffffffffffff1660601b81526014018273ffffffffffffffffffffffffffffffffffffffff1673ffffffffffffffffffffffffffffffffffffffff1660601b8152601401925050506040516020818303038152906040528051906020012060405160200180807fff000000000000000000000000000000000000000000000000000000000000008152506001018373ffffffffffffffffffffffffffffffffffffffff1673ffffffffffffffffffffffffffffffffffffffff1660601b8152601401828152602001807f96e8ac4277198ff8b6f785478aa9a39f403cb768dd02cbee326c3e7da348845f815250602001925050506040516020818303038152906040528051906020012060001c925050509392505050565b611d5082826040516024018080602001838152602001828103825284818151815260200191508051906020019080838360005b83811015611c9b578082015181840152602081019050611c80565b50505050905090810190601f168015611cc85780820380516001836020036101000a031916815260200191505b5093505050506040516020818303038152906040527f9710a9d0000000000000000000000000000000000000000000000000000000007bffffffffffffffffffffffffffffffffffffffffffffffffffffffff19166020820180517bffffffffffffffffffffffffffffffffffffffffffffffffffffffff8381831617835250505050612382565b5050565b6060600282511015611dce576040517f08c379a000000000000000000000000000000000000000000000000000000000815260040180806020018281038252601e8152602001807f556e697377617056324c6962726172793a20494e56414c49445f50415448000081525060200191505060405180910390fd5b815167ffffffffffffffff81118015611de657600080fd5b50604051908082528060200260200182016040528015611e155781602001602082028036833780820191505090505b5090508281600183510381518110611e2957fe5b602002602001018181525050611e9d81600081518110611e4557fe5b602002602001015182600181518110611e5a57fe5b60200260200101516040518060400160405280600781526020017f616d6f756e7473000000000000000000000000000000000000000000000000008152506123ab565b6000600183510390505b6000811115611fc957611f05836001830381518110611ec257fe5b60200260200101516040518060400160405280600981526020017f706174685b692d315d00000000000000000000000000000000000000000000008152506124bb565b600080611f3c87866001860381518110611f1b57fe5b6020026020010151878681518110611f2f57fe5b60200260200101516125ee565b91509150611f8082826040518060400160405280600881526020017f72657365727665730000000000000000000000000000000000000000000000008152506123ab565b611f9e848481518110611f8f57fe5b60200260200101518383612717565b846001850381518110611fad57fe5b6020026020010181815250505050808060019003915050611ea7565b509392505050565b612100828260405160240180806020018373ffffffffffffffffffffffffffffffffffffffff1673ffffffffffffffffffffffffffffffffffffffff168152602001828103825284818151815260200191508051906020019080838360005b8381101561204b578082015181840152602081019050612030565b50505050905090810190601f1680156120785780820380516001836020036101000a031916815260200191505b5093505050506040516020818303038152906040527f319af333000000000000000000000000000000000000000000000000000000007bffffffffffffffffffffffffffffffffffffffffffffffffffffffff19166020820180517bffffffffffffffffffffffffffffffffffffffffffffffffffffffff8381831617835250505050612382565b5050565b61220782826040516024018083815260200180602001828103825283818151815260200191508051906020019080838360005b83811015612152578082015181840152602081019050612137565b50505050905090810190601f16801561217f5780820380516001836020036101000a031916815260200191505b5093505050506040516020818303038152906040527f0fa3f345000000000000000000000000000000000000000000000000000000007bffffffffffffffffffffffffffffffffffffffffffffffffffffffff19166020820180517bffffffffffffffffffffffffffffffffffffffffffffffffffffffff8381831617835250505050612382565b5050565b6000808273ffffffffffffffffffffffffffffffffffffffff168473ffffffffffffffffffffffffffffffffffffffff161415612293576040517f08c379a0000000000000000000000000000000000000000000000000000000008152600401808060200182810382526025815260200180612baf6025913960400191505060405180910390fd5b8273ffffffffffffffffffffffffffffffffffffffff168473ffffffffffffffffffffffffffffffffffffffff16106122cd5782846122d0565b83835b8092508193505050600073ffffffffffffffffffffffffffffffffffffffff168273ffffffffffffffffffffffffffffffffffffffff16141561237b576040517f08c379a000000000000000000000000000000000000000000000000000000000815260040180806020018281038252601e8152602001807f556e697377617056324c6962726172793a205a45524f5f41444452455353000081525060200191505060405180910390fd5b9250929050565b60008151905060006a636f6e736f6c652e6c6f679050602083016000808483855afa5050505050565b6124b68383836040516024018084815260200183815260200180602001828103825283818151815260200191508051906020019080838360005b838110156124005780820151818401526020810190506123e5565b50505050905090810190601f16801561242d5780820380516001836020036101000a031916815260200191505b509450505050506040516020818303038152906040527f7d690ee6000000000000000000000000000000000000000000000000000000007bffffffffffffffffffffffffffffffffffffffffffffffffffffffff19166020820180517bffffffffffffffffffffffffffffffffffffffffffffffffffffffff8381831617835250505050612382565b505050565b6125ea8282604051602401808373ffffffffffffffffffffffffffffffffffffffff1673ffffffffffffffffffffffffffffffffffffffff16815260200180602001828103825283818151815260200191508051906020019080838360005b8381101561253557808201518184015260208101905061251a565b50505050905090810190601f1680156125625780820380516001836020036101000a031916815260200191505b5093505050506040516020818303038152906040527f759f86bb000000000000000000000000000000000000000000000000000000007bffffffffffffffffffffffffffffffffffffffffffffffffffffffff19166020820180517bffffffffffffffffffffffffffffffffffffffffffffffffffffffff8381831617835250505050612382565b5050565b60008060006125fd858561220b565b50905060008061260e888888611af2565b73ffffffffffffffffffffffffffffffffffffffff16630902f1ac6040518163ffffffff1660e01b815260040160606040518083038186803b15801561265357600080fd5b505afa158015612667573d6000803e3d6000fd5b505050506040513d606081101561267d57600080fd5b81019080805190602001909291908051906020019092919080519060200190929190505050506dffffffffffffffffffffffffffff1691506dffffffffffffffffffffffffffff1691508273ffffffffffffffffffffffffffffffffffffffff168773ffffffffffffffffffffffffffffffffffffffff1614612701578082612704565b81815b8095508196505050505050935093915050565b6000808411612771576040517f08c379a000000000000000000000000000000000000000000000000000000000815260040180806020018281038252602c815260200180612b83602c913960400191505060405180910390fd5b6000831180156127815750600082115b6127d6576040517f08c379a0000000000000000000000000000000000000000000000000000000008152600401808060200182810382526028815260200180612c246028913960400191505060405180910390fd5b60006127ff6103e86127f187876128d390919063ffffffff16565b6128d390919063ffffffff16565b9050600061282a6103e561281c888761296890919063ffffffff16565b6128d390919063ffffffff16565b905061286c82826040518060400160405280600981526020017f6e756d2f64656e6f6d00000000000000000000000000000000000000000000008152506123ab565b612889600182848161287a57fe5b046129eb90919063ffffffff16565b92506128ca836040518060400160405280600881526020017f616d6f756e74496e000000000000000000000000000000000000000000000000815250612104565b50509392505050565b6000808214806128f057508282838502925082816128ed57fe5b04145b612962576040517f08c379a00000000000000000000000000000000000000000000000000000000081526004018080602001828103825260148152602001807f64732d6d6174682d6d756c2d6f766572666c6f7700000000000000000000000081525060200191505060405180910390fd5b92915050565b60008282840391508111156129e5576040517f08c379a00000000000000000000000000000000000000000000000000000000081526004018080602001828103825260158152602001807f64732d6d6174682d7375622d756e646572666c6f77000000000000000000000081525060200191505060405180910390fd5b92915050565b6000828284019150811015612a68576040517f08c379a00000000000000000000000000000000000000000000000000000000081526004018080602001828103825260148152602001807f64732d6d6174682d6164642d6f766572666c6f7700000000000000000000000081525060200191505060405180910390fd5b92915050565b6040518060a00160405280600081526020016000815260200160008152602001600073ffffffffffffffffffffffffffffffffffffffff1681526020016000151581525090565b828054828255906000526020600020908101928215612b2e579160200282015b82811115612b2d5782518260006101000a81548173ffffffffffffffffffffffffffffffffffffffff021916908373ffffffffffffffffffffffffffffffffffffffff16021790555091602001919060010190612ad5565b5b509050612b3b9190612b3f565b5090565b612b7f91905b80821115612b7b57600081816101000a81549073ffffffffffffffffffffffffffffffffffffffff021916905550600101612b45565b5090565b9056fe556e697377617056324c6962726172793a20494e53554646494349454e545f4f55545055545f414d4f554e54556e697377617056324c6962726172793a204944454e544943414c5f4144445245535345536e6f206f6e6520686173206a6f696e656420746865206c6f7474657279207965746561636820656e74727920636f737473202e303038362065746865722e2077726f6e6720616d6f756e742073656e74556e697377617056324c6962726172793a20494e53554646494349454e545f4c49515549444954597468697320616464726573732068617320616c72656164792072656163686564206d6178696d756d20656e747269657320666f722074686973206c6f74746572792028353029a2646970667358221220d067f913885b1cc7f1fe106ed7929ac120b35a658aeddcc20991577da480871864736f6c63430006060033",
  "linkReferences": {},
  "deployedLinkReferences": {}
}